{
	"contracts/3_Ballot.sol": {
		"Ballot": {
			"abi": [
				{
					"inputs": [
						{
							"internalType": "bytes32[]",
							"name": "proposalNames",
							"type": "bytes32[]"
						}
					],
					"stateMutability": "nonpayable",
					"type": "constructor"
				},
				{
					"inputs": [],
					"name": "chairperson",
					"outputs": [
						{
							"internalType": "address",
							"name": "",
							"type": "address"
						}
					],
					"stateMutability": "view",
					"type": "function"
				},
				{
					"inputs": [
						{
							"internalType": "address",
							"name": "to",
							"type": "address"
						}
					],
					"name": "delegate",
					"outputs": [],
					"stateMutability": "nonpayable",
					"type": "function"
				},
				{
					"inputs": [
						{
							"internalType": "address",
							"name": "voter",
							"type": "address"
						}
					],
					"name": "giveRightToVote",
					"outputs": [],
					"stateMutability": "nonpayable",
					"type": "function"
				},
				{
					"inputs": [
						{
							"internalType": "uint256",
							"name": "",
							"type": "uint256"
						}
					],
					"name": "proposals",
					"outputs": [
						{
							"internalType": "bytes32",
							"name": "name",
							"type": "bytes32"
						},
						{
							"internalType": "uint256",
							"name": "voteCount",
							"type": "uint256"
						}
					],
					"stateMutability": "view",
					"type": "function"
				},
				{
					"inputs": [],
					"name": "startTime",
					"outputs": [
						{
							"internalType": "uint256",
							"name": "",
							"type": "uint256"
						}
					],
					"stateMutability": "view",
					"type": "function"
				},
				{
					"inputs": [
						{
							"internalType": "uint256",
							"name": "proposal",
							"type": "uint256"
						}
					],
					"name": "vote",
					"outputs": [],
					"stateMutability": "nonpayable",
					"type": "function"
				},
				{
					"inputs": [
						{
							"internalType": "address",
							"name": "",
							"type": "address"
						}
					],
					"name": "voters",
					"outputs": [
						{
							"internalType": "uint256",
							"name": "weight",
							"type": "uint256"
						},
						{
							"internalType": "bool",
							"name": "voted",
							"type": "bool"
						},
						{
							"internalType": "address",
							"name": "delegate",
							"type": "address"
						},
						{
							"internalType": "uint256",
							"name": "vote",
							"type": "uint256"
						}
					],
					"stateMutability": "view",
					"type": "function"
				},
				{
					"inputs": [],
					"name": "winnerName",
					"outputs": [
						{
							"internalType": "bytes32",
							"name": "winnerName_",
							"type": "bytes32"
						}
					],
					"stateMutability": "view",
					"type": "function"
				},
				{
					"inputs": [],
					"name": "winningProposal",
					"outputs": [
						{
							"internalType": "uint256",
							"name": "winningProposal_",
							"type": "uint256"
						}
					],
					"stateMutability": "view",
					"type": "function"
				}
			],
			"devdoc": {
				"details": "Implements voting process along with vote delegation",
				"kind": "dev",
				"methods": {
					"constructor": {
						"details": "Create a new ballot to choose one of 'proposalNames'.",
						"params": {
							"proposalNames": "names of proposals"
						}
					},
					"delegate(address)": {
						"details": "Delegate your vote to the voter 'to'.",
						"params": {
							"to": "address to which vote is delegated"
						}
					},
					"giveRightToVote(address)": {
						"details": "Give 'voter' the right to vote on this ballot. May only be called by 'chairperson'.",
						"params": {
							"voter": "address of voter"
						}
					},
					"vote(uint256)": {
						"details": "Give your vote (including votes delegated to you) to proposal 'proposals[proposal].name'.",
						"params": {
							"proposal": "index of proposal in the proposals array"
						}
					},
					"winnerName()": {
						"details": "Calls winningProposal() function to get the index of the winner contained in the proposals array and then",
						"returns": {
							"winnerName_": "the name of the winner"
						}
					},
					"winningProposal()": {
						"details": "Computes the winning proposal taking all previous votes into account.",
						"returns": {
							"winningProposal_": "index of winning proposal in the proposals array"
						}
					}
				},
				"title": "Ballot",
				"version": 1
			},
			"evm": {
				"assembly": "    /* \"contracts/3_Ballot.sol\":157:4715  contract Ballot {... */\n  mstore(0x40, 0x80)\n    /* \"contracts/3_Ballot.sol\":986:1505  constructor(bytes32[] memory proposalNames) {... */\n  callvalue\n  dup1\n  iszero\n  tag_1\n  jumpi\n  0x00\n  dup1\n  revert\ntag_1:\n  pop\n  mload(0x40)\n  sub(codesize, bytecodeSize)\n  dup1\n  bytecodeSize\n  dup4\n  codecopy\n  dup2\n  dup2\n  add\n  0x40\n  mstore\n  dup2\n  add\n  swap1\n  tag_2\n  swap2\n  swap1\n  tag_3\n  jump\t// in\ntag_2:\n    /* \"contracts/3_Ballot.sol\":1054:1064  msg.sender */\n  caller\n    /* \"contracts/3_Ballot.sol\":1040:1051  chairperson */\n  0x00\n  dup1\n    /* \"contracts/3_Ballot.sol\":1040:1064  chairperson = msg.sender */\n  0x0100\n  exp\n  dup2\n  sload\n  dup2\n  0xffffffffffffffffffffffffffffffffffffffff\n  mul\n  not\n  and\n  swap1\n  dup4\n  0xffffffffffffffffffffffffffffffffffffffff\n  and\n  mul\n  or\n  swap1\n  sstore\n  pop\n    /* \"contracts/3_Ballot.sol\":1103:1104  1 */\n  0x01\n    /* \"contracts/3_Ballot.sol\":1074:1080  voters */\n  0x02\n    /* \"contracts/3_Ballot.sol\":1074:1093  voters[chairperson] */\n  0x00\n    /* \"contracts/3_Ballot.sol\":1081:1092  chairperson */\n  dup1\n  0x00\n  swap1\n  sload\n  swap1\n  0x0100\n  exp\n  swap1\n  div\n  0xffffffffffffffffffffffffffffffffffffffff\n  and\n    /* \"contracts/3_Ballot.sol\":1074:1093  voters[chairperson] */\n  0xffffffffffffffffffffffffffffffffffffffff\n  and\n  0xffffffffffffffffffffffffffffffffffffffff\n  and\n  dup2\n  mstore\n  0x20\n  add\n  swap1\n  dup2\n  mstore\n  0x20\n  add\n  0x00\n  keccak256\n    /* \"contracts/3_Ballot.sol\":1074:1100  voters[chairperson].weight */\n  0x00\n  add\n    /* \"contracts/3_Ballot.sol\":1074:1104  voters[chairperson].weight = 1 */\n  dup2\n  swap1\n  sstore\n  pop\n    /* \"contracts/3_Ballot.sol\":1127:1142  block.timestamp */\n  timestamp\n    /* \"contracts/3_Ballot.sol\":1115:1124  startTime */\n  0x01\n    /* \"contracts/3_Ballot.sol\":1115:1142  startTime = block.timestamp */\n  dup2\n  swap1\n  sstore\n  pop\n    /* \"contracts/3_Ballot.sol\":1158:1164  uint i */\n  0x00\n    /* \"contracts/3_Ballot.sol\":1153:1499  for (uint i = 0; i < proposalNames.length; i++) {... */\ntag_6:\n    /* \"contracts/3_Ballot.sol\":1174:1187  proposalNames */\n  dup2\n    /* \"contracts/3_Ballot.sol\":1174:1194  proposalNames.length */\n  mload\n    /* \"contracts/3_Ballot.sol\":1170:1171  i */\n  dup2\n    /* \"contracts/3_Ballot.sol\":1170:1194  i < proposalNames.length */\n  lt\n    /* \"contracts/3_Ballot.sol\":1153:1499  for (uint i = 0; i < proposalNames.length; i++) {... */\n  iszero\n  tag_7\n  jumpi\n    /* \"contracts/3_Ballot.sol\":1378:1387  proposals */\n  0x03\n    /* \"contracts/3_Ballot.sol\":1393:1487  Proposal({... */\n  mload(0x40)\n  dup1\n  0x40\n  add\n  0x40\n  mstore\n  dup1\n    /* \"contracts/3_Ballot.sol\":1426:1439  proposalNames */\n  dup5\n    /* \"contracts/3_Ballot.sol\":1440:1441  i */\n  dup5\n    /* \"contracts/3_Ballot.sol\":1426:1442  proposalNames[i] */\n  dup2\n  mload\n  dup2\n  lt\n  tag_9\n  jumpi\n  tag_10\n  tag_11\n  jump\t// in\ntag_10:\ntag_9:\n  0x20\n  mul\n  0x20\n  add\n  add\n  mload\n    /* \"contracts/3_Ballot.sol\":1393:1487  Proposal({... */\n  dup2\n  mstore\n  0x20\n  add\n    /* \"contracts/3_Ballot.sol\":1471:1472  0 */\n  0x00\n    /* \"contracts/3_Ballot.sol\":1393:1487  Proposal({... */\n  dup2\n  mstore\n  pop\n    /* \"contracts/3_Ballot.sol\":1378:1488  proposals.push(Proposal({... */\n  swap1\n  dup1\n  0x01\n  dup2\n  sload\n  add\n  dup1\n  dup3\n  sstore\n  dup1\n  swap2\n  pop\n  pop\n  0x01\n  swap1\n  sub\n  swap1\n  0x00\n  mstore\n  keccak256(0x00, 0x20)\n  swap1\n  0x02\n  mul\n  add\n  0x00\n  swap1\n  swap2\n  swap1\n  swap2\n  swap1\n  swap2\n  pop\n  0x00\n  dup3\n  add\n  mload\n  dup2\n  0x00\n  add\n  sstore\n  0x20\n  dup3\n  add\n  mload\n  dup2\n  0x01\n  add\n  sstore\n  pop\n  pop\n    /* \"contracts/3_Ballot.sol\":1196:1199  i++ */\n  dup1\n  dup1\n  tag_13\n  swap1\n  tag_14\n  jump\t// in\ntag_13:\n  swap2\n  pop\n  pop\n    /* \"contracts/3_Ballot.sol\":1153:1499  for (uint i = 0; i < proposalNames.length; i++) {... */\n  jump(tag_6)\ntag_7:\n  pop\n    /* \"contracts/3_Ballot.sol\":986:1505  constructor(bytes32[] memory proposalNames) {... */\n  pop\n    /* \"contracts/3_Ballot.sol\":157:4715  contract Ballot {... */\n  jump(tag_15)\n    /* \"#utility.yul\":24:768   */\ntag_17:\n    /* \"#utility.yul\":131:136   */\n  0x00\n    /* \"#utility.yul\":156:237   */\n  tag_19\n    /* \"#utility.yul\":172:236   */\n  tag_20\n    /* \"#utility.yul\":229:235   */\n  dup5\n    /* \"#utility.yul\":172:236   */\n  tag_21\n  jump\t// in\ntag_20:\n    /* \"#utility.yul\":156:237   */\n  tag_22\n  jump\t// in\ntag_19:\n    /* \"#utility.yul\":147:237   */\n  swap1\n  pop\n    /* \"#utility.yul\":257:262   */\n  dup1\n    /* \"#utility.yul\":286:292   */\n  dup4\n    /* \"#utility.yul\":279:284   */\n  dup3\n    /* \"#utility.yul\":272:293   */\n  mstore\n    /* \"#utility.yul\":320:324   */\n  0x20\n    /* \"#utility.yul\":313:318   */\n  dup3\n    /* \"#utility.yul\":309:325   */\n  add\n    /* \"#utility.yul\":302:325   */\n  swap1\n  pop\n    /* \"#utility.yul\":346:352   */\n  dup3\n    /* \"#utility.yul\":396:399   */\n  dup6\n    /* \"#utility.yul\":388:392   */\n  0x20\n    /* \"#utility.yul\":380:386   */\n  dup7\n    /* \"#utility.yul\":376:393   */\n  mul\n    /* \"#utility.yul\":371:374   */\n  dup3\n    /* \"#utility.yul\":367:394   */\n  add\n    /* \"#utility.yul\":364:400   */\n  gt\n    /* \"#utility.yul\":361:504   */\n  iszero\n  tag_23\n  jumpi\n    /* \"#utility.yul\":415:494   */\n  tag_24\n  tag_25\n  jump\t// in\ntag_24:\n    /* \"#utility.yul\":361:504   */\ntag_23:\n    /* \"#utility.yul\":528:529   */\n  0x00\n    /* \"#utility.yul\":513:762   */\ntag_26:\n    /* \"#utility.yul\":538:544   */\n  dup6\n    /* \"#utility.yul\":535:536   */\n  dup2\n    /* \"#utility.yul\":532:545   */\n  lt\n    /* \"#utility.yul\":513:762   */\n  iszero\n  tag_28\n  jumpi\n    /* \"#utility.yul\":606:609   */\n  dup2\n    /* \"#utility.yul\":635:683   */\n  tag_29\n    /* \"#utility.yul\":679:682   */\n  dup9\n    /* \"#utility.yul\":667:677   */\n  dup3\n    /* \"#utility.yul\":635:683   */\n  tag_30\n  jump\t// in\ntag_29:\n    /* \"#utility.yul\":630:633   */\n  dup5\n    /* \"#utility.yul\":623:684   */\n  mstore\n    /* \"#utility.yul\":713:717   */\n  0x20\n    /* \"#utility.yul\":708:711   */\n  dup5\n    /* \"#utility.yul\":704:718   */\n  add\n    /* \"#utility.yul\":697:718   */\n  swap4\n  pop\n    /* \"#utility.yul\":747:751   */\n  0x20\n    /* \"#utility.yul\":742:745   */\n  dup4\n    /* \"#utility.yul\":738:752   */\n  add\n    /* \"#utility.yul\":731:752   */\n  swap3\n  pop\n    /* \"#utility.yul\":573:762   */\n  pop\n    /* \"#utility.yul\":560:561   */\n  0x01\n    /* \"#utility.yul\":557:558   */\n  dup2\n    /* \"#utility.yul\":553:562   */\n  add\n    /* \"#utility.yul\":548:562   */\n  swap1\n  pop\n    /* \"#utility.yul\":513:762   */\n  jump(tag_26)\ntag_28:\n    /* \"#utility.yul\":517:531   */\n  pop\n    /* \"#utility.yul\":137:768   */\n  pop\n  pop\n    /* \"#utility.yul\":24:768   */\n  swap4\n  swap3\n  pop\n  pop\n  pop\n  jump\t// out\n    /* \"#utility.yul\":791:1176   */\ntag_31:\n    /* \"#utility.yul\":873:878   */\n  0x00\n    /* \"#utility.yul\":922:925   */\n  dup3\n    /* \"#utility.yul\":915:919   */\n  0x1f\n    /* \"#utility.yul\":907:913   */\n  dup4\n    /* \"#utility.yul\":903:920   */\n  add\n    /* \"#utility.yul\":899:926   */\n  slt\n    /* \"#utility.yul\":889:1011   */\n  tag_33\n  jumpi\n    /* \"#utility.yul\":930:1009   */\n  tag_34\n  tag_35\n  jump\t// in\ntag_34:\n    /* \"#utility.yul\":889:1011   */\ntag_33:\n    /* \"#utility.yul\":1040:1046   */\n  dup2\n    /* \"#utility.yul\":1034:1047   */\n  mload\n    /* \"#utility.yul\":1065:1170   */\n  tag_36\n    /* \"#utility.yul\":1166:1169   */\n  dup5\n    /* \"#utility.yul\":1158:1164   */\n  dup3\n    /* \"#utility.yul\":1151:1155   */\n  0x20\n    /* \"#utility.yul\":1143:1149   */\n  dup7\n    /* \"#utility.yul\":1139:1156   */\n  add\n    /* \"#utility.yul\":1065:1170   */\n  tag_17\n  jump\t// in\ntag_36:\n    /* \"#utility.yul\":1056:1170   */\n  swap2\n  pop\n    /* \"#utility.yul\":879:1176   */\n  pop\n    /* \"#utility.yul\":791:1176   */\n  swap3\n  swap2\n  pop\n  pop\n  jump\t// out\n    /* \"#utility.yul\":1182:1325   */\ntag_30:\n    /* \"#utility.yul\":1239:1244   */\n  0x00\n    /* \"#utility.yul\":1270:1276   */\n  dup2\n    /* \"#utility.yul\":1264:1277   */\n  mload\n    /* \"#utility.yul\":1255:1277   */\n  swap1\n  pop\n    /* \"#utility.yul\":1286:1319   */\n  tag_38\n    /* \"#utility.yul\":1313:1318   */\n  dup2\n    /* \"#utility.yul\":1286:1319   */\n  tag_39\n  jump\t// in\ntag_38:\n    /* \"#utility.yul\":1182:1325   */\n  swap3\n  swap2\n  pop\n  pop\n  jump\t// out\n    /* \"#utility.yul\":1331:1885   */\ntag_3:\n    /* \"#utility.yul\":1426:1432   */\n  0x00\n    /* \"#utility.yul\":1475:1477   */\n  0x20\n    /* \"#utility.yul\":1463:1472   */\n  dup3\n    /* \"#utility.yul\":1454:1461   */\n  dup5\n    /* \"#utility.yul\":1450:1473   */\n  sub\n    /* \"#utility.yul\":1446:1478   */\n  slt\n    /* \"#utility.yul\":1443:1562   */\n  iszero\n  tag_41\n  jumpi\n    /* \"#utility.yul\":1481:1560   */\n  tag_42\n  tag_43\n  jump\t// in\ntag_42:\n    /* \"#utility.yul\":1443:1562   */\ntag_41:\n    /* \"#utility.yul\":1622:1623   */\n  0x00\n    /* \"#utility.yul\":1611:1620   */\n  dup3\n    /* \"#utility.yul\":1607:1624   */\n  add\n    /* \"#utility.yul\":1601:1625   */\n  mload\n    /* \"#utility.yul\":1652:1670   */\n  0xffffffffffffffff\n    /* \"#utility.yul\":1644:1650   */\n  dup2\n    /* \"#utility.yul\":1641:1671   */\n  gt\n    /* \"#utility.yul\":1638:1755   */\n  iszero\n  tag_44\n  jumpi\n    /* \"#utility.yul\":1674:1753   */\n  tag_45\n  tag_46\n  jump\t// in\ntag_45:\n    /* \"#utility.yul\":1638:1755   */\ntag_44:\n    /* \"#utility.yul\":1779:1868   */\n  tag_47\n    /* \"#utility.yul\":1860:1867   */\n  dup5\n    /* \"#utility.yul\":1851:1857   */\n  dup3\n    /* \"#utility.yul\":1840:1849   */\n  dup6\n    /* \"#utility.yul\":1836:1858   */\n  add\n    /* \"#utility.yul\":1779:1868   */\n  tag_31\n  jump\t// in\ntag_47:\n    /* \"#utility.yul\":1769:1868   */\n  swap2\n  pop\n    /* \"#utility.yul\":1572:1878   */\n  pop\n    /* \"#utility.yul\":1331:1885   */\n  swap3\n  swap2\n  pop\n  pop\n  jump\t// out\n    /* \"#utility.yul\":1891:2020   */\ntag_22:\n    /* \"#utility.yul\":1925:1931   */\n  0x00\n    /* \"#utility.yul\":1952:1972   */\n  tag_49\n  tag_50\n  jump\t// in\ntag_49:\n    /* \"#utility.yul\":1942:1972   */\n  swap1\n  pop\n    /* \"#utility.yul\":1981:2014   */\n  tag_51\n    /* \"#utility.yul\":2009:2013   */\n  dup3\n    /* \"#utility.yul\":2001:2007   */\n  dup3\n    /* \"#utility.yul\":1981:2014   */\n  tag_52\n  jump\t// in\ntag_51:\n    /* \"#utility.yul\":1891:2020   */\n  swap2\n  swap1\n  pop\n  jump\t// out\n    /* \"#utility.yul\":2026:2101   */\ntag_50:\n    /* \"#utility.yul\":2059:2065   */\n  0x00\n    /* \"#utility.yul\":2092:2094   */\n  0x40\n    /* \"#utility.yul\":2086:2095   */\n  mload\n    /* \"#utility.yul\":2076:2095   */\n  swap1\n  pop\n    /* \"#utility.yul\":2026:2101   */\n  swap1\n  jump\t// out\n    /* \"#utility.yul\":2107:2418   */\ntag_21:\n    /* \"#utility.yul\":2184:2188   */\n  0x00\n    /* \"#utility.yul\":2274:2292   */\n  0xffffffffffffffff\n    /* \"#utility.yul\":2266:2272   */\n  dup3\n    /* \"#utility.yul\":2263:2293   */\n  gt\n    /* \"#utility.yul\":2260:2316   */\n  iszero\n  tag_55\n  jumpi\n    /* \"#utility.yul\":2296:2314   */\n  tag_56\n  tag_57\n  jump\t// in\ntag_56:\n    /* \"#utility.yul\":2260:2316   */\ntag_55:\n    /* \"#utility.yul\":2346:2350   */\n  0x20\n    /* \"#utility.yul\":2338:2344   */\n  dup3\n    /* \"#utility.yul\":2334:2351   */\n  mul\n    /* \"#utility.yul\":2326:2351   */\n  swap1\n  pop\n    /* \"#utility.yul\":2406:2410   */\n  0x20\n    /* \"#utility.yul\":2400:2404   */\n  dup2\n    /* \"#utility.yul\":2396:2411   */\n  add\n    /* \"#utility.yul\":2388:2411   */\n  swap1\n  pop\n    /* \"#utility.yul\":2107:2418   */\n  swap2\n  swap1\n  pop\n  jump\t// out\n    /* \"#utility.yul\":2424:2501   */\ntag_58:\n    /* \"#utility.yul\":2461:2468   */\n  0x00\n    /* \"#utility.yul\":2490:2495   */\n  dup2\n    /* \"#utility.yul\":2479:2495   */\n  swap1\n  pop\n    /* \"#utility.yul\":2424:2501   */\n  swap2\n  swap1\n  pop\n  jump\t// out\n    /* \"#utility.yul\":2507:2584   */\ntag_60:\n    /* \"#utility.yul\":2544:2551   */\n  0x00\n    /* \"#utility.yul\":2573:2578   */\n  dup2\n    /* \"#utility.yul\":2562:2578   */\n  swap1\n  pop\n    /* \"#utility.yul\":2507:2584   */\n  swap2\n  swap1\n  pop\n  jump\t// out\n    /* \"#utility.yul\":2590:2871   */\ntag_52:\n    /* \"#utility.yul\":2673:2700   */\n  tag_63\n    /* \"#utility.yul\":2695:2699   */\n  dup3\n    /* \"#utility.yul\":2673:2700   */\n  tag_64\n  jump\t// in\ntag_63:\n    /* \"#utility.yul\":2665:2671   */\n  dup2\n    /* \"#utility.yul\":2661:2701   */\n  add\n    /* \"#utility.yul\":2803:2809   */\n  dup2\n    /* \"#utility.yul\":2791:2801   */\n  dup2\n    /* \"#utility.yul\":2788:2810   */\n  lt\n    /* \"#utility.yul\":2767:2785   */\n  0xffffffffffffffff\n    /* \"#utility.yul\":2755:2765   */\n  dup3\n    /* \"#utility.yul\":2752:2786   */\n  gt\n    /* \"#utility.yul\":2749:2811   */\n  or\n    /* \"#utility.yul\":2746:2834   */\n  iszero\n  tag_65\n  jumpi\n    /* \"#utility.yul\":2814:2832   */\n  tag_66\n  tag_57\n  jump\t// in\ntag_66:\n    /* \"#utility.yul\":2746:2834   */\ntag_65:\n    /* \"#utility.yul\":2854:2864   */\n  dup1\n    /* \"#utility.yul\":2850:2852   */\n  0x40\n    /* \"#utility.yul\":2843:2865   */\n  mstore\n    /* \"#utility.yul\":2633:2871   */\n  pop\n    /* \"#utility.yul\":2590:2871   */\n  pop\n  pop\n  jump\t// out\n    /* \"#utility.yul\":2877:3110   */\ntag_14:\n    /* \"#utility.yul\":2916:2919   */\n  0x00\n    /* \"#utility.yul\":2939:2963   */\n  tag_68\n    /* \"#utility.yul\":2957:2962   */\n  dup3\n    /* \"#utility.yul\":2939:2963   */\n  tag_60\n  jump\t// in\ntag_68:\n    /* \"#utility.yul\":2930:2963   */\n  swap2\n  pop\n    /* \"#utility.yul\":2985:3051   */\n  0xffffffffffffffffffffffffffffffffffffffffffffffffffffffffffffffff\n    /* \"#utility.yul\":2978:2983   */\n  dup3\n    /* \"#utility.yul\":2975:3052   */\n  eq\n    /* \"#utility.yul\":2972:3075   */\n  iszero\n  tag_69\n  jumpi\n    /* \"#utility.yul\":3055:3073   */\n  tag_70\n  tag_71\n  jump\t// in\ntag_70:\n    /* \"#utility.yul\":2972:3075   */\ntag_69:\n    /* \"#utility.yul\":3102:3103   */\n  0x01\n    /* \"#utility.yul\":3095:3100   */\n  dup3\n    /* \"#utility.yul\":3091:3104   */\n  add\n    /* \"#utility.yul\":3084:3104   */\n  swap1\n  pop\n    /* \"#utility.yul\":2877:3110   */\n  swap2\n  swap1\n  pop\n  jump\t// out\n    /* \"#utility.yul\":3116:3296   */\ntag_71:\n    /* \"#utility.yul\":3164:3241   */\n  0x4e487b7100000000000000000000000000000000000000000000000000000000\n    /* \"#utility.yul\":3161:3162   */\n  0x00\n    /* \"#utility.yul\":3154:3242   */\n  mstore\n    /* \"#utility.yul\":3261:3265   */\n  0x11\n    /* \"#utility.yul\":3258:3259   */\n  0x04\n    /* \"#utility.yul\":3251:3266   */\n  mstore\n    /* \"#utility.yul\":3285:3289   */\n  0x24\n    /* \"#utility.yul\":3282:3283   */\n  0x00\n    /* \"#utility.yul\":3275:3290   */\n  revert\n    /* \"#utility.yul\":3302:3482   */\ntag_11:\n    /* \"#utility.yul\":3350:3427   */\n  0x4e487b7100000000000000000000000000000000000000000000000000000000\n    /* \"#utility.yul\":3347:3348   */\n  0x00\n    /* \"#utility.yul\":3340:3428   */\n  mstore\n    /* \"#utility.yul\":3447:3451   */\n  0x32\n    /* \"#utility.yul\":3444:3445   */\n  0x04\n    /* \"#utility.yul\":3437:3452   */\n  mstore\n    /* \"#utility.yul\":3471:3475   */\n  0x24\n    /* \"#utility.yul\":3468:3469   */\n  0x00\n    /* \"#utility.yul\":3461:3476   */\n  revert\n    /* \"#utility.yul\":3488:3668   */\ntag_57:\n    /* \"#utility.yul\":3536:3613   */\n  0x4e487b7100000000000000000000000000000000000000000000000000000000\n    /* \"#utility.yul\":3533:3534   */\n  0x00\n    /* \"#utility.yul\":3526:3614   */\n  mstore\n    /* \"#utility.yul\":3633:3637   */\n  0x41\n    /* \"#utility.yul\":3630:3631   */\n  0x04\n    /* \"#utility.yul\":3623:3638   */\n  mstore\n    /* \"#utility.yul\":3657:3661   */\n  0x24\n    /* \"#utility.yul\":3654:3655   */\n  0x00\n    /* \"#utility.yul\":3647:3662   */\n  revert\n    /* \"#utility.yul\":3674:3791   */\ntag_35:\n    /* \"#utility.yul\":3783:3784   */\n  0x00\n    /* \"#utility.yul\":3780:3781   */\n  dup1\n    /* \"#utility.yul\":3773:3785   */\n  revert\n    /* \"#utility.yul\":3797:3914   */\ntag_25:\n    /* \"#utility.yul\":3906:3907   */\n  0x00\n    /* \"#utility.yul\":3903:3904   */\n  dup1\n    /* \"#utility.yul\":3896:3908   */\n  revert\n    /* \"#utility.yul\":3920:4037   */\ntag_46:\n    /* \"#utility.yul\":4029:4030   */\n  0x00\n    /* \"#utility.yul\":4026:4027   */\n  dup1\n    /* \"#utility.yul\":4019:4031   */\n  revert\n    /* \"#utility.yul\":4043:4160   */\ntag_43:\n    /* \"#utility.yul\":4152:4153   */\n  0x00\n    /* \"#utility.yul\":4149:4150   */\n  dup1\n    /* \"#utility.yul\":4142:4154   */\n  revert\n    /* \"#utility.yul\":4166:4268   */\ntag_64:\n    /* \"#utility.yul\":4207:4213   */\n  0x00\n    /* \"#utility.yul\":4258:4260   */\n  0x1f\n    /* \"#utility.yul\":4254:4261   */\n  not\n    /* \"#utility.yul\":4249:4251   */\n  0x1f\n    /* \"#utility.yul\":4242:4247   */\n  dup4\n    /* \"#utility.yul\":4238:4252   */\n  add\n    /* \"#utility.yul\":4234:4262   */\n  and\n    /* \"#utility.yul\":4224:4262   */\n  swap1\n  pop\n    /* \"#utility.yul\":4166:4268   */\n  swap2\n  swap1\n  pop\n  jump\t// out\n    /* \"#utility.yul\":4274:4396   */\ntag_39:\n    /* \"#utility.yul\":4347:4371   */\n  tag_81\n    /* \"#utility.yul\":4365:4370   */\n  dup2\n    /* \"#utility.yul\":4347:4371   */\n  tag_58\n  jump\t// in\ntag_81:\n    /* \"#utility.yul\":4340:4345   */\n  dup2\n    /* \"#utility.yul\":4337:4372   */\n  eq\n    /* \"#utility.yul\":4327:4390   */\n  tag_82\n  jumpi\n    /* \"#utility.yul\":4386:4387   */\n  0x00\n    /* \"#utility.yul\":4383:4384   */\n  dup1\n    /* \"#utility.yul\":4376:4388   */\n  revert\n    /* \"#utility.yul\":4327:4390   */\ntag_82:\n    /* \"#utility.yul\":4274:4396   */\n  pop\n  jump\t// out\n    /* \"contracts/3_Ballot.sol\":157:4715  contract Ballot {... */\ntag_15:\n  dataSize(sub_0)\n  dup1\n  dataOffset(sub_0)\n  0x00\n  codecopy\n  0x00\n  return\nstop\n\nsub_0: assembly {\n        /* \"contracts/3_Ballot.sol\":157:4715  contract Ballot {... */\n      mstore(0x40, 0x80)\n      callvalue\n      dup1\n      iszero\n      tag_1\n      jumpi\n      0x00\n      dup1\n      revert\n    tag_1:\n      pop\n      jumpi(tag_2, lt(calldatasize, 0x04))\n      shr(0xe0, calldataload(0x00))\n      dup1\n      0x609ff1bd\n      gt\n      tag_12\n      jumpi\n      dup1\n      0x609ff1bd\n      eq\n      tag_7\n      jumpi\n      dup1\n      0x78e97925\n      eq\n      tag_8\n      jumpi\n      dup1\n      0x9e7b8d61\n      eq\n      tag_9\n      jumpi\n      dup1\n      0xa3ec138d\n      eq\n      tag_10\n      jumpi\n      dup1\n      0xe2ba53f0\n      eq\n      tag_11\n      jumpi\n      jump(tag_2)\n    tag_12:\n      dup1\n      0x0121b93f\n      eq\n      tag_3\n      jumpi\n      dup1\n      0x013cf08b\n      eq\n      tag_4\n      jumpi\n      dup1\n      0x2e4176cf\n      eq\n      tag_5\n      jumpi\n      dup1\n      0x5c19a95c\n      eq\n      tag_6\n      jumpi\n    tag_2:\n      0x00\n      dup1\n      revert\n        /* \"contracts/3_Ballot.sol\":3360:3827  function vote(uint proposal) public voteEnded{... */\n    tag_3:\n      tag_13\n      0x04\n      dup1\n      calldatasize\n      sub\n      dup2\n      add\n      swap1\n      tag_14\n      swap2\n      swap1\n      tag_15\n      jump\t// in\n    tag_14:\n      tag_16\n      jump\t// in\n    tag_13:\n      stop\n        /* \"contracts/3_Ballot.sol\":822:849  Proposal[] public proposals */\n    tag_4:\n      tag_17\n      0x04\n      dup1\n      calldatasize\n      sub\n      dup2\n      add\n      swap1\n      tag_18\n      swap2\n      swap1\n      tag_15\n      jump\t// in\n    tag_18:\n      tag_19\n      jump\t// in\n    tag_17:\n      mload(0x40)\n      tag_20\n      swap3\n      swap2\n      swap1\n      tag_21\n      jump\t// in\n    tag_20:\n      mload(0x40)\n      dup1\n      swap2\n      sub\n      swap1\n      return\n        /* \"contracts/3_Ballot.sol\":715:741  address public chairperson */\n    tag_5:\n      tag_22\n      tag_23\n      jump\t// in\n    tag_22:\n      mload(0x40)\n      tag_24\n      swap2\n      swap1\n      tag_25\n      jump\t// in\n    tag_24:\n      mload(0x40)\n      dup1\n      swap2\n      sub\n      swap1\n      return\n        /* \"contracts/3_Ballot.sol\":2265:3172  function delegate(address to) public {... */\n    tag_6:\n      tag_26\n      0x04\n      dup1\n      calldatasize\n      sub\n      dup2\n      add\n      swap1\n      tag_27\n      swap2\n      swap1\n      tag_28\n      jump\t// in\n    tag_27:\n      tag_29\n      jump\t// in\n    tag_26:\n      stop\n        /* \"contracts/3_Ballot.sol\":4013:4378  function winningProposal() public view... */\n    tag_7:\n      tag_30\n      tag_31\n      jump\t// in\n    tag_30:\n      mload(0x40)\n      tag_32\n      swap2\n      swap1\n      tag_33\n      jump\t// in\n    tag_32:\n      mload(0x40)\n      dup1\n      swap2\n      sub\n      swap1\n      return\n        /* \"contracts/3_Ballot.sol\":748:769  uint public startTime */\n    tag_8:\n      tag_34\n      tag_35\n      jump\t// in\n    tag_34:\n      mload(0x40)\n      tag_36\n      swap2\n      swap1\n      tag_33\n      jump\t// in\n    tag_36:\n      mload(0x40)\n      dup1\n      swap2\n      sub\n      swap1\n      return\n        /* \"contracts/3_Ballot.sol\":1786:2141  function giveRightToVote(address voter) public {... */\n    tag_9:\n      tag_37\n      0x04\n      dup1\n      calldatasize\n      sub\n      dup2\n      add\n      swap1\n      tag_38\n      swap2\n      swap1\n      tag_28\n      jump\t// in\n    tag_38:\n      tag_39\n      jump\t// in\n    tag_37:\n      stop\n        /* \"contracts/3_Ballot.sol\":776:815  mapping(address => Voter) public voters */\n    tag_10:\n      tag_40\n      0x04\n      dup1\n      calldatasize\n      sub\n      dup2\n      add\n      swap1\n      tag_41\n      swap2\n      swap1\n      tag_28\n      jump\t// in\n    tag_41:\n      tag_42\n      jump\t// in\n    tag_40:\n      mload(0x40)\n      tag_43\n      swap5\n      swap4\n      swap3\n      swap2\n      swap1\n      tag_44\n      jump\t// in\n    tag_43:\n      mload(0x40)\n      dup1\n      swap2\n      sub\n      swap1\n      return\n        /* \"contracts/3_Ballot.sol\":4569:4713  function winnerName() public view... */\n    tag_11:\n      tag_45\n      tag_46\n      jump\t// in\n    tag_45:\n      mload(0x40)\n      tag_47\n      swap2\n      swap1\n      tag_48\n      jump\t// in\n    tag_47:\n      mload(0x40)\n      dup1\n      swap2\n      sub\n      swap1\n      return\n        /* \"contracts/3_Ballot.sol\":3360:3827  function vote(uint proposal) public voteEnded{... */\n    tag_16:\n        /* \"contracts/3_Ballot.sol\":1587:1588  5 */\n      0x05\n        /* \"contracts/3_Ballot.sol\":1581:1583  60 */\n      0x3c\n        /* \"contracts/3_Ballot.sol\":1569:1578  startTime */\n      sload(0x01)\n        /* \"contracts/3_Ballot.sol\":1551:1566  block.timestamp */\n      timestamp\n        /* \"contracts/3_Ballot.sol\":1551:1578  block.timestamp - startTime */\n      tag_50\n      swap2\n      swap1\n      tag_51\n      jump\t// in\n    tag_50:\n        /* \"contracts/3_Ballot.sol\":1550:1583  (block.timestamp - startTime)/ 60 */\n      tag_52\n      swap2\n      swap1\n      tag_53\n      jump\t// in\n    tag_52:\n        /* \"contracts/3_Ballot.sol\":1549:1588  ((block.timestamp - startTime)/ 60) > 5 */\n      gt\n        /* \"contracts/3_Ballot.sol\":1541:1608  require(((block.timestamp - startTime)/ 60) > 5,\"Voting is ended!\") */\n      tag_54\n      jumpi\n      mload(0x40)\n      0x08c379a000000000000000000000000000000000000000000000000000000000\n      dup2\n      mstore\n      0x04\n      add\n      tag_55\n      swap1\n      tag_56\n      jump\t// in\n    tag_55:\n      mload(0x40)\n      dup1\n      swap2\n      sub\n      swap1\n      revert\n    tag_54:\n        /* \"contracts/3_Ballot.sol\":3415:3435  Voter storage sender */\n      0x00\n        /* \"contracts/3_Ballot.sol\":3438:3444  voters */\n      0x02\n        /* \"contracts/3_Ballot.sol\":3438:3456  voters[msg.sender] */\n      0x00\n        /* \"contracts/3_Ballot.sol\":3445:3455  msg.sender */\n      caller\n        /* \"contracts/3_Ballot.sol\":3438:3456  voters[msg.sender] */\n      0xffffffffffffffffffffffffffffffffffffffff\n      and\n      0xffffffffffffffffffffffffffffffffffffffff\n      and\n      dup2\n      mstore\n      0x20\n      add\n      swap1\n      dup2\n      mstore\n      0x20\n      add\n      0x00\n      keccak256\n        /* \"contracts/3_Ballot.sol\":3415:3456  Voter storage sender = voters[msg.sender] */\n      swap1\n      pop\n        /* \"contracts/3_Ballot.sol\":3491:3492  0 */\n      0x00\n        /* \"contracts/3_Ballot.sol\":3474:3480  sender */\n      dup2\n        /* \"contracts/3_Ballot.sol\":3474:3487  sender.weight */\n      0x00\n      add\n      sload\n        /* \"contracts/3_Ballot.sol\":3474:3492  sender.weight != 0 */\n      eq\n      iszero\n        /* \"contracts/3_Ballot.sol\":3466:3517  require(sender.weight != 0, \"Has no right to vote\") */\n      tag_58\n      jumpi\n      mload(0x40)\n      0x08c379a000000000000000000000000000000000000000000000000000000000\n      dup2\n      mstore\n      0x04\n      add\n      tag_59\n      swap1\n      tag_60\n      jump\t// in\n    tag_59:\n      mload(0x40)\n      dup1\n      swap2\n      sub\n      swap1\n      revert\n    tag_58:\n        /* \"contracts/3_Ballot.sol\":3536:3542  sender */\n      dup1\n        /* \"contracts/3_Ballot.sol\":3536:3548  sender.voted */\n      0x01\n      add\n      0x00\n      swap1\n      sload\n      swap1\n      0x0100\n      exp\n      swap1\n      div\n      0xff\n      and\n        /* \"contracts/3_Ballot.sol\":3535:3548  !sender.voted */\n      iszero\n        /* \"contracts/3_Ballot.sol\":3527:3567  require(!sender.voted, \"Already voted.\") */\n      tag_61\n      jumpi\n      mload(0x40)\n      0x08c379a000000000000000000000000000000000000000000000000000000000\n      dup2\n      mstore\n      0x04\n      add\n      tag_62\n      swap1\n      tag_63\n      jump\t// in\n    tag_62:\n      mload(0x40)\n      dup1\n      swap2\n      sub\n      swap1\n      revert\n    tag_61:\n        /* \"contracts/3_Ballot.sol\":3592:3596  true */\n      0x01\n        /* \"contracts/3_Ballot.sol\":3577:3583  sender */\n      dup2\n        /* \"contracts/3_Ballot.sol\":3577:3589  sender.voted */\n      0x01\n      add\n      0x00\n        /* \"contracts/3_Ballot.sol\":3577:3596  sender.voted = true */\n      0x0100\n      exp\n      dup2\n      sload\n      dup2\n      0xff\n      mul\n      not\n      and\n      swap1\n      dup4\n      iszero\n      iszero\n      mul\n      or\n      swap1\n      sstore\n      pop\n        /* \"contracts/3_Ballot.sol\":3620:3628  proposal */\n      dup2\n        /* \"contracts/3_Ballot.sol\":3606:3612  sender */\n      dup2\n        /* \"contracts/3_Ballot.sol\":3606:3617  sender.vote */\n      0x02\n      add\n        /* \"contracts/3_Ballot.sol\":3606:3628  sender.vote = proposal */\n      dup2\n      swap1\n      sstore\n      pop\n        /* \"contracts/3_Ballot.sol\":3807:3813  sender */\n      dup1\n        /* \"contracts/3_Ballot.sol\":3807:3820  sender.weight */\n      0x00\n      add\n      sload\n        /* \"contracts/3_Ballot.sol\":3774:3783  proposals */\n      0x03\n        /* \"contracts/3_Ballot.sol\":3784:3792  proposal */\n      dup4\n        /* \"contracts/3_Ballot.sol\":3774:3793  proposals[proposal] */\n      dup2\n      sload\n      dup2\n      lt\n      tag_64\n      jumpi\n      tag_65\n      tag_66\n      jump\t// in\n    tag_65:\n    tag_64:\n      swap1\n      0x00\n      mstore\n      keccak256(0x00, 0x20)\n      swap1\n      0x02\n      mul\n      add\n        /* \"contracts/3_Ballot.sol\":3774:3803  proposals[proposal].voteCount */\n      0x01\n      add\n      0x00\n        /* \"contracts/3_Ballot.sol\":3774:3820  proposals[proposal].voteCount += sender.weight */\n      dup3\n      dup3\n      sload\n      tag_68\n      swap2\n      swap1\n      tag_69\n      jump\t// in\n    tag_68:\n      swap3\n      pop\n      pop\n      dup2\n      swap1\n      sstore\n      pop\n        /* \"contracts/3_Ballot.sol\":3405:3827  {... */\n      pop\n        /* \"contracts/3_Ballot.sol\":3360:3827  function vote(uint proposal) public voteEnded{... */\n      pop\n      jump\t// out\n        /* \"contracts/3_Ballot.sol\":822:849  Proposal[] public proposals */\n    tag_19:\n      0x03\n      dup2\n      dup2\n      sload\n      dup2\n      lt\n      tag_70\n      jumpi\n      0x00\n      dup1\n      revert\n    tag_70:\n      swap1\n      0x00\n      mstore\n      keccak256(0x00, 0x20)\n      swap1\n      0x02\n      mul\n      add\n      0x00\n      swap2\n      pop\n      swap1\n      pop\n      dup1\n      0x00\n      add\n      sload\n      swap1\n      dup1\n      0x01\n      add\n      sload\n      swap1\n      pop\n      dup3\n      jump\t// out\n        /* \"contracts/3_Ballot.sol\":715:741  address public chairperson */\n    tag_23:\n      0x00\n      dup1\n      sload\n      swap1\n      0x0100\n      exp\n      swap1\n      div\n      0xffffffffffffffffffffffffffffffffffffffff\n      and\n      dup2\n      jump\t// out\n        /* \"contracts/3_Ballot.sol\":2265:3172  function delegate(address to) public {... */\n    tag_29:\n        /* \"contracts/3_Ballot.sol\":2312:2332  Voter storage sender */\n      0x00\n        /* \"contracts/3_Ballot.sol\":2335:2341  voters */\n      0x02\n        /* \"contracts/3_Ballot.sol\":2335:2353  voters[msg.sender] */\n      0x00\n        /* \"contracts/3_Ballot.sol\":2342:2352  msg.sender */\n      caller\n        /* \"contracts/3_Ballot.sol\":2335:2353  voters[msg.sender] */\n      0xffffffffffffffffffffffffffffffffffffffff\n      and\n      0xffffffffffffffffffffffffffffffffffffffff\n      and\n      dup2\n      mstore\n      0x20\n      add\n      swap1\n      dup2\n      mstore\n      0x20\n      add\n      0x00\n      keccak256\n        /* \"contracts/3_Ballot.sol\":2312:2353  Voter storage sender = voters[msg.sender] */\n      swap1\n      pop\n        /* \"contracts/3_Ballot.sol\":2372:2378  sender */\n      dup1\n        /* \"contracts/3_Ballot.sol\":2372:2384  sender.voted */\n      0x01\n      add\n      0x00\n      swap1\n      sload\n      swap1\n      0x0100\n      exp\n      swap1\n      div\n      0xff\n      and\n        /* \"contracts/3_Ballot.sol\":2371:2384  !sender.voted */\n      iszero\n        /* \"contracts/3_Ballot.sol\":2363:2407  require(!sender.voted, \"You already voted.\") */\n      tag_73\n      jumpi\n      mload(0x40)\n      0x08c379a000000000000000000000000000000000000000000000000000000000\n      dup2\n      mstore\n      0x04\n      add\n      tag_74\n      swap1\n      tag_75\n      jump\t// in\n    tag_74:\n      mload(0x40)\n      dup1\n      swap2\n      sub\n      swap1\n      revert\n    tag_73:\n        /* \"contracts/3_Ballot.sol\":2431:2441  msg.sender */\n      caller\n        /* \"contracts/3_Ballot.sol\":2425:2441  to != msg.sender */\n      0xffffffffffffffffffffffffffffffffffffffff\n      and\n        /* \"contracts/3_Ballot.sol\":2425:2427  to */\n      dup3\n        /* \"contracts/3_Ballot.sol\":2425:2441  to != msg.sender */\n      0xffffffffffffffffffffffffffffffffffffffff\n      and\n      eq\n      iszero\n        /* \"contracts/3_Ballot.sol\":2417:2476  require(to != msg.sender, \"Self-delegation is disallowed.\") */\n      tag_76\n      jumpi\n      mload(0x40)\n      0x08c379a000000000000000000000000000000000000000000000000000000000\n      dup2\n      mstore\n      0x04\n      add\n      tag_77\n      swap1\n      tag_78\n      jump\t// in\n    tag_77:\n      mload(0x40)\n      dup1\n      swap2\n      sub\n      swap1\n      revert\n    tag_76:\n        /* \"contracts/3_Ballot.sol\":2487:2710  while (voters[to].delegate != address(0)) {... */\n    tag_79:\n        /* \"contracts/3_Ballot.sol\":2525:2526  0 */\n      0x00\n        /* \"contracts/3_Ballot.sol\":2494:2527  voters[to].delegate != address(0) */\n      0xffffffffffffffffffffffffffffffffffffffff\n      and\n        /* \"contracts/3_Ballot.sol\":2494:2500  voters */\n      0x02\n        /* \"contracts/3_Ballot.sol\":2494:2504  voters[to] */\n      0x00\n        /* \"contracts/3_Ballot.sol\":2501:2503  to */\n      dup5\n        /* \"contracts/3_Ballot.sol\":2494:2504  voters[to] */\n      0xffffffffffffffffffffffffffffffffffffffff\n      and\n      0xffffffffffffffffffffffffffffffffffffffff\n      and\n      dup2\n      mstore\n      0x20\n      add\n      swap1\n      dup2\n      mstore\n      0x20\n      add\n      0x00\n      keccak256\n        /* \"contracts/3_Ballot.sol\":2494:2513  voters[to].delegate */\n      0x01\n      add\n      0x01\n      swap1\n      sload\n      swap1\n      0x0100\n      exp\n      swap1\n      div\n      0xffffffffffffffffffffffffffffffffffffffff\n      and\n        /* \"contracts/3_Ballot.sol\":2494:2527  voters[to].delegate != address(0) */\n      0xffffffffffffffffffffffffffffffffffffffff\n      and\n      eq\n        /* \"contracts/3_Ballot.sol\":2487:2710  while (voters[to].delegate != address(0)) {... */\n      tag_80\n      jumpi\n        /* \"contracts/3_Ballot.sol\":2548:2554  voters */\n      0x02\n        /* \"contracts/3_Ballot.sol\":2548:2558  voters[to] */\n      0x00\n        /* \"contracts/3_Ballot.sol\":2555:2557  to */\n      dup4\n        /* \"contracts/3_Ballot.sol\":2548:2558  voters[to] */\n      0xffffffffffffffffffffffffffffffffffffffff\n      and\n      0xffffffffffffffffffffffffffffffffffffffff\n      and\n      dup2\n      mstore\n      0x20\n      add\n      swap1\n      dup2\n      mstore\n      0x20\n      add\n      0x00\n      keccak256\n        /* \"contracts/3_Ballot.sol\":2548:2567  voters[to].delegate */\n      0x01\n      add\n      0x01\n      swap1\n      sload\n      swap1\n      0x0100\n      exp\n      swap1\n      div\n      0xffffffffffffffffffffffffffffffffffffffff\n      and\n        /* \"contracts/3_Ballot.sol\":2543:2567  to = voters[to].delegate */\n      swap2\n      pop\n        /* \"contracts/3_Ballot.sol\":2659:2669  msg.sender */\n      caller\n        /* \"contracts/3_Ballot.sol\":2653:2669  to != msg.sender */\n      0xffffffffffffffffffffffffffffffffffffffff\n      and\n        /* \"contracts/3_Ballot.sol\":2653:2655  to */\n      dup3\n        /* \"contracts/3_Ballot.sol\":2653:2669  to != msg.sender */\n      0xffffffffffffffffffffffffffffffffffffffff\n      and\n      eq\n      iszero\n        /* \"contracts/3_Ballot.sol\":2645:2699  require(to != msg.sender, \"Found loop in delegation.\") */\n      tag_81\n      jumpi\n      mload(0x40)\n      0x08c379a000000000000000000000000000000000000000000000000000000000\n      dup2\n      mstore\n      0x04\n      add\n      tag_82\n      swap1\n      tag_83\n      jump\t// in\n    tag_82:\n      mload(0x40)\n      dup1\n      swap2\n      sub\n      swap1\n      revert\n    tag_81:\n        /* \"contracts/3_Ballot.sol\":2487:2710  while (voters[to].delegate != address(0)) {... */\n      jump(tag_79)\n    tag_80:\n        /* \"contracts/3_Ballot.sol\":2734:2738  true */\n      0x01\n        /* \"contracts/3_Ballot.sol\":2719:2725  sender */\n      dup2\n        /* \"contracts/3_Ballot.sol\":2719:2731  sender.voted */\n      0x01\n      add\n      0x00\n        /* \"contracts/3_Ballot.sol\":2719:2738  sender.voted = true */\n      0x0100\n      exp\n      dup2\n      sload\n      dup2\n      0xff\n      mul\n      not\n      and\n      swap1\n      dup4\n      iszero\n      iszero\n      mul\n      or\n      swap1\n      sstore\n      pop\n        /* \"contracts/3_Ballot.sol\":2766:2768  to */\n      dup2\n        /* \"contracts/3_Ballot.sol\":2748:2754  sender */\n      dup2\n        /* \"contracts/3_Ballot.sol\":2748:2763  sender.delegate */\n      0x01\n      add\n      0x01\n        /* \"contracts/3_Ballot.sol\":2748:2768  sender.delegate = to */\n      0x0100\n      exp\n      dup2\n      sload\n      dup2\n      0xffffffffffffffffffffffffffffffffffffffff\n      mul\n      not\n      and\n      swap1\n      dup4\n      0xffffffffffffffffffffffffffffffffffffffff\n      and\n      mul\n      or\n      swap1\n      sstore\n      pop\n        /* \"contracts/3_Ballot.sol\":2778:2801  Voter storage delegate_ */\n      0x00\n        /* \"contracts/3_Ballot.sol\":2804:2810  voters */\n      0x02\n        /* \"contracts/3_Ballot.sol\":2804:2814  voters[to] */\n      0x00\n        /* \"contracts/3_Ballot.sol\":2811:2813  to */\n      dup5\n        /* \"contracts/3_Ballot.sol\":2804:2814  voters[to] */\n      0xffffffffffffffffffffffffffffffffffffffff\n      and\n      0xffffffffffffffffffffffffffffffffffffffff\n      and\n      dup2\n      mstore\n      0x20\n      add\n      swap1\n      dup2\n      mstore\n      0x20\n      add\n      0x00\n      keccak256\n        /* \"contracts/3_Ballot.sol\":2778:2814  Voter storage delegate_ = voters[to] */\n      swap1\n      pop\n        /* \"contracts/3_Ballot.sol\":2828:2837  delegate_ */\n      dup1\n        /* \"contracts/3_Ballot.sol\":2828:2843  delegate_.voted */\n      0x01\n      add\n      0x00\n      swap1\n      sload\n      swap1\n      0x0100\n      exp\n      swap1\n      div\n      0xff\n      and\n        /* \"contracts/3_Ballot.sol\":2824:3166  if (delegate_.voted) {... */\n      iszero\n      tag_84\n      jumpi\n        /* \"contracts/3_Ballot.sol\":2995:3001  sender */\n      dup2\n        /* \"contracts/3_Ballot.sol\":2995:3008  sender.weight */\n      0x00\n      add\n      sload\n        /* \"contracts/3_Ballot.sol\":2956:2965  proposals */\n      0x03\n        /* \"contracts/3_Ballot.sol\":2966:2975  delegate_ */\n      dup3\n        /* \"contracts/3_Ballot.sol\":2966:2980  delegate_.vote */\n      0x02\n      add\n      sload\n        /* \"contracts/3_Ballot.sol\":2956:2981  proposals[delegate_.vote] */\n      dup2\n      sload\n      dup2\n      lt\n      tag_85\n      jumpi\n      tag_86\n      tag_66\n      jump\t// in\n    tag_86:\n    tag_85:\n      swap1\n      0x00\n      mstore\n      keccak256(0x00, 0x20)\n      swap1\n      0x02\n      mul\n      add\n        /* \"contracts/3_Ballot.sol\":2956:2991  proposals[delegate_.vote].voteCount */\n      0x01\n      add\n      0x00\n        /* \"contracts/3_Ballot.sol\":2956:3008  proposals[delegate_.vote].voteCount += sender.weight */\n      dup3\n      dup3\n      sload\n      tag_88\n      swap2\n      swap1\n      tag_69\n      jump\t// in\n    tag_88:\n      swap3\n      pop\n      pop\n      dup2\n      swap1\n      sstore\n      pop\n        /* \"contracts/3_Ballot.sol\":2824:3166  if (delegate_.voted) {... */\n      jump(tag_89)\n    tag_84:\n        /* \"contracts/3_Ballot.sol\":3142:3148  sender */\n      dup2\n        /* \"contracts/3_Ballot.sol\":3142:3155  sender.weight */\n      0x00\n      add\n      sload\n        /* \"contracts/3_Ballot.sol\":3122:3131  delegate_ */\n      dup2\n        /* \"contracts/3_Ballot.sol\":3122:3138  delegate_.weight */\n      0x00\n      add\n      0x00\n        /* \"contracts/3_Ballot.sol\":3122:3155  delegate_.weight += sender.weight */\n      dup3\n      dup3\n      sload\n      tag_90\n      swap2\n      swap1\n      tag_69\n      jump\t// in\n    tag_90:\n      swap3\n      pop\n      pop\n      dup2\n      swap1\n      sstore\n      pop\n        /* \"contracts/3_Ballot.sol\":2824:3166  if (delegate_.voted) {... */\n    tag_89:\n        /* \"contracts/3_Ballot.sol\":2302:3172  {... */\n      pop\n      pop\n        /* \"contracts/3_Ballot.sol\":2265:3172  function delegate(address to) public {... */\n      pop\n      jump\t// out\n        /* \"contracts/3_Ballot.sol\":4013:4378  function winningProposal() public view... */\n    tag_31:\n        /* \"contracts/3_Ballot.sol\":4073:4094  uint winningProposal_ */\n      0x00\n        /* \"contracts/3_Ballot.sol\":4110:4131  uint winningVoteCount */\n      dup1\n        /* \"contracts/3_Ballot.sol\":4134:4135  0 */\n      0x00\n        /* \"contracts/3_Ballot.sol\":4110:4135  uint winningVoteCount = 0 */\n      swap1\n      pop\n        /* \"contracts/3_Ballot.sol\":4150:4156  uint p */\n      0x00\n        /* \"contracts/3_Ballot.sol\":4145:4372  for (uint p = 0; p < proposals.length; p++) {... */\n    tag_92:\n        /* \"contracts/3_Ballot.sol\":4166:4175  proposals */\n      0x03\n        /* \"contracts/3_Ballot.sol\":4166:4182  proposals.length */\n      dup1\n      sload\n      swap1\n      pop\n        /* \"contracts/3_Ballot.sol\":4162:4163  p */\n      dup2\n        /* \"contracts/3_Ballot.sol\":4162:4182  p < proposals.length */\n      lt\n        /* \"contracts/3_Ballot.sol\":4145:4372  for (uint p = 0; p < proposals.length; p++) {... */\n      iszero\n      tag_93\n      jumpi\n        /* \"contracts/3_Ballot.sol\":4232:4248  winningVoteCount */\n      dup2\n        /* \"contracts/3_Ballot.sol\":4207:4216  proposals */\n      0x03\n        /* \"contracts/3_Ballot.sol\":4217:4218  p */\n      dup3\n        /* \"contracts/3_Ballot.sol\":4207:4219  proposals[p] */\n      dup2\n      sload\n      dup2\n      lt\n      tag_95\n      jumpi\n      tag_96\n      tag_66\n      jump\t// in\n    tag_96:\n    tag_95:\n      swap1\n      0x00\n      mstore\n      keccak256(0x00, 0x20)\n      swap1\n      0x02\n      mul\n      add\n        /* \"contracts/3_Ballot.sol\":4207:4229  proposals[p].voteCount */\n      0x01\n      add\n      sload\n        /* \"contracts/3_Ballot.sol\":4207:4248  proposals[p].voteCount > winningVoteCount */\n      gt\n        /* \"contracts/3_Ballot.sol\":4203:4362  if (proposals[p].voteCount > winningVoteCount) {... */\n      iszero\n      tag_98\n      jumpi\n        /* \"contracts/3_Ballot.sol\":4287:4296  proposals */\n      0x03\n        /* \"contracts/3_Ballot.sol\":4297:4298  p */\n      dup2\n        /* \"contracts/3_Ballot.sol\":4287:4299  proposals[p] */\n      dup2\n      sload\n      dup2\n      lt\n      tag_99\n      jumpi\n      tag_100\n      tag_66\n      jump\t// in\n    tag_100:\n    tag_99:\n      swap1\n      0x00\n      mstore\n      keccak256(0x00, 0x20)\n      swap1\n      0x02\n      mul\n      add\n        /* \"contracts/3_Ballot.sol\":4287:4309  proposals[p].voteCount */\n      0x01\n      add\n      sload\n        /* \"contracts/3_Ballot.sol\":4268:4309  winningVoteCount = proposals[p].voteCount */\n      swap2\n      pop\n        /* \"contracts/3_Ballot.sol\":4346:4347  p */\n      dup1\n        /* \"contracts/3_Ballot.sol\":4327:4347  winningProposal_ = p */\n      swap3\n      pop\n        /* \"contracts/3_Ballot.sol\":4203:4362  if (proposals[p].voteCount > winningVoteCount) {... */\n    tag_98:\n        /* \"contracts/3_Ballot.sol\":4184:4187  p++ */\n      dup1\n      dup1\n      tag_102\n      swap1\n      tag_103\n      jump\t// in\n    tag_102:\n      swap2\n      pop\n      pop\n        /* \"contracts/3_Ballot.sol\":4145:4372  for (uint p = 0; p < proposals.length; p++) {... */\n      jump(tag_92)\n    tag_93:\n      pop\n        /* \"contracts/3_Ballot.sol\":4100:4378  {... */\n      pop\n        /* \"contracts/3_Ballot.sol\":4013:4378  function winningProposal() public view... */\n      swap1\n      jump\t// out\n        /* \"contracts/3_Ballot.sol\":748:769  uint public startTime */\n    tag_35:\n      sload(0x01)\n      dup2\n      jump\t// out\n        /* \"contracts/3_Ballot.sol\":1786:2141  function giveRightToVote(address voter) public {... */\n    tag_39:\n        /* \"contracts/3_Ballot.sol\":1878:1889  chairperson */\n      0x00\n      dup1\n      sload\n      swap1\n      0x0100\n      exp\n      swap1\n      div\n      0xffffffffffffffffffffffffffffffffffffffff\n      and\n        /* \"contracts/3_Ballot.sol\":1864:1889  msg.sender == chairperson */\n      0xffffffffffffffffffffffffffffffffffffffff\n      and\n        /* \"contracts/3_Ballot.sol\":1864:1874  msg.sender */\n      caller\n        /* \"contracts/3_Ballot.sol\":1864:1889  msg.sender == chairperson */\n      0xffffffffffffffffffffffffffffffffffffffff\n      and\n      eq\n        /* \"contracts/3_Ballot.sol\":1843:1955  require(... */\n      tag_105\n      jumpi\n      mload(0x40)\n      0x08c379a000000000000000000000000000000000000000000000000000000000\n      dup2\n      mstore\n      0x04\n      add\n      tag_106\n      swap1\n      tag_107\n      jump\t// in\n    tag_106:\n      mload(0x40)\n      dup1\n      swap2\n      sub\n      swap1\n      revert\n    tag_105:\n        /* \"contracts/3_Ballot.sol\":1987:1993  voters */\n      0x02\n        /* \"contracts/3_Ballot.sol\":1987:2000  voters[voter] */\n      0x00\n        /* \"contracts/3_Ballot.sol\":1994:1999  voter */\n      dup3\n        /* \"contracts/3_Ballot.sol\":1987:2000  voters[voter] */\n      0xffffffffffffffffffffffffffffffffffffffff\n      and\n      0xffffffffffffffffffffffffffffffffffffffff\n      and\n      dup2\n      mstore\n      0x20\n      add\n      swap1\n      dup2\n      mstore\n      0x20\n      add\n      0x00\n      keccak256\n        /* \"contracts/3_Ballot.sol\":1987:2006  voters[voter].voted */\n      0x01\n      add\n      0x00\n      swap1\n      sload\n      swap1\n      0x0100\n      exp\n      swap1\n      div\n      0xff\n      and\n        /* \"contracts/3_Ballot.sol\":1986:2006  !voters[voter].voted */\n      iszero\n        /* \"contracts/3_Ballot.sol\":1965:2056  require(... */\n      tag_108\n      jumpi\n      mload(0x40)\n      0x08c379a000000000000000000000000000000000000000000000000000000000\n      dup2\n      mstore\n      0x04\n      add\n      tag_109\n      swap1\n      tag_110\n      jump\t// in\n    tag_109:\n      mload(0x40)\n      dup1\n      swap2\n      sub\n      swap1\n      revert\n    tag_108:\n        /* \"contracts/3_Ballot.sol\":2098:2099  0 */\n      0x00\n        /* \"contracts/3_Ballot.sol\":2074:2080  voters */\n      0x02\n        /* \"contracts/3_Ballot.sol\":2074:2087  voters[voter] */\n      0x00\n        /* \"contracts/3_Ballot.sol\":2081:2086  voter */\n      dup4\n        /* \"contracts/3_Ballot.sol\":2074:2087  voters[voter] */\n      0xffffffffffffffffffffffffffffffffffffffff\n      and\n      0xffffffffffffffffffffffffffffffffffffffff\n      and\n      dup2\n      mstore\n      0x20\n      add\n      swap1\n      dup2\n      mstore\n      0x20\n      add\n      0x00\n      keccak256\n        /* \"contracts/3_Ballot.sol\":2074:2094  voters[voter].weight */\n      0x00\n      add\n      sload\n        /* \"contracts/3_Ballot.sol\":2074:2099  voters[voter].weight == 0 */\n      eq\n        /* \"contracts/3_Ballot.sol\":2066:2100  require(voters[voter].weight == 0) */\n      tag_111\n      jumpi\n      0x00\n      dup1\n      revert\n    tag_111:\n        /* \"contracts/3_Ballot.sol\":2133:2134  1 */\n      0x01\n        /* \"contracts/3_Ballot.sol\":2110:2116  voters */\n      0x02\n        /* \"contracts/3_Ballot.sol\":2110:2123  voters[voter] */\n      0x00\n        /* \"contracts/3_Ballot.sol\":2117:2122  voter */\n      dup4\n        /* \"contracts/3_Ballot.sol\":2110:2123  voters[voter] */\n      0xffffffffffffffffffffffffffffffffffffffff\n      and\n      0xffffffffffffffffffffffffffffffffffffffff\n      and\n      dup2\n      mstore\n      0x20\n      add\n      swap1\n      dup2\n      mstore\n      0x20\n      add\n      0x00\n      keccak256\n        /* \"contracts/3_Ballot.sol\":2110:2130  voters[voter].weight */\n      0x00\n      add\n        /* \"contracts/3_Ballot.sol\":2110:2134  voters[voter].weight = 1 */\n      dup2\n      swap1\n      sstore\n      pop\n        /* \"contracts/3_Ballot.sol\":1786:2141  function giveRightToVote(address voter) public {... */\n      pop\n      jump\t// out\n        /* \"contracts/3_Ballot.sol\":776:815  mapping(address => Voter) public voters */\n    tag_42:\n      mstore(0x20, 0x02)\n      dup1\n      0x00\n      mstore\n      keccak256(0x00, 0x40)\n      0x00\n      swap2\n      pop\n      swap1\n      pop\n      dup1\n      0x00\n      add\n      sload\n      swap1\n      dup1\n      0x01\n      add\n      0x00\n      swap1\n      sload\n      swap1\n      0x0100\n      exp\n      swap1\n      div\n      0xff\n      and\n      swap1\n      dup1\n      0x01\n      add\n      0x01\n      swap1\n      sload\n      swap1\n      0x0100\n      exp\n      swap1\n      div\n      0xffffffffffffffffffffffffffffffffffffffff\n      and\n      swap1\n      dup1\n      0x02\n      add\n      sload\n      swap1\n      pop\n      dup5\n      jump\t// out\n        /* \"contracts/3_Ballot.sol\":4569:4713  function winnerName() public view... */\n    tag_46:\n        /* \"contracts/3_Ballot.sol\":4624:4643  bytes32 winnerName_ */\n      0x00\n        /* \"contracts/3_Ballot.sol\":4673:4682  proposals */\n      0x03\n        /* \"contracts/3_Ballot.sol\":4683:4700  winningProposal() */\n      tag_113\n        /* \"contracts/3_Ballot.sol\":4683:4698  winningProposal */\n      tag_31\n        /* \"contracts/3_Ballot.sol\":4683:4700  winningProposal() */\n      jump\t// in\n    tag_113:\n        /* \"contracts/3_Ballot.sol\":4673:4701  proposals[winningProposal()] */\n      dup2\n      sload\n      dup2\n      lt\n      tag_114\n      jumpi\n      tag_115\n      tag_66\n      jump\t// in\n    tag_115:\n    tag_114:\n      swap1\n      0x00\n      mstore\n      keccak256(0x00, 0x20)\n      swap1\n      0x02\n      mul\n      add\n        /* \"contracts/3_Ballot.sol\":4673:4706  proposals[winningProposal()].name */\n      0x00\n      add\n      sload\n        /* \"contracts/3_Ballot.sol\":4659:4706  winnerName_ = proposals[winningProposal()].name */\n      swap1\n      pop\n        /* \"contracts/3_Ballot.sol\":4569:4713  function winnerName() public view... */\n      swap1\n      jump\t// out\n        /* \"#utility.yul\":7:146   */\n    tag_118:\n        /* \"#utility.yul\":53:58   */\n      0x00\n        /* \"#utility.yul\":91:97   */\n      dup2\n        /* \"#utility.yul\":78:98   */\n      calldataload\n        /* \"#utility.yul\":69:98   */\n      swap1\n      pop\n        /* \"#utility.yul\":107:140   */\n      tag_120\n        /* \"#utility.yul\":134:139   */\n      dup2\n        /* \"#utility.yul\":107:140   */\n      tag_121\n      jump\t// in\n    tag_120:\n        /* \"#utility.yul\":7:146   */\n      swap3\n      swap2\n      pop\n      pop\n      jump\t// out\n        /* \"#utility.yul\":152:291   */\n    tag_122:\n        /* \"#utility.yul\":198:203   */\n      0x00\n        /* \"#utility.yul\":236:242   */\n      dup2\n        /* \"#utility.yul\":223:243   */\n      calldataload\n        /* \"#utility.yul\":214:243   */\n      swap1\n      pop\n        /* \"#utility.yul\":252:285   */\n      tag_124\n        /* \"#utility.yul\":279:284   */\n      dup2\n        /* \"#utility.yul\":252:285   */\n      tag_125\n      jump\t// in\n    tag_124:\n        /* \"#utility.yul\":152:291   */\n      swap3\n      swap2\n      pop\n      pop\n      jump\t// out\n        /* \"#utility.yul\":297:626   */\n    tag_28:\n        /* \"#utility.yul\":356:362   */\n      0x00\n        /* \"#utility.yul\":405:407   */\n      0x20\n        /* \"#utility.yul\":393:402   */\n      dup3\n        /* \"#utility.yul\":384:391   */\n      dup5\n        /* \"#utility.yul\":380:403   */\n      sub\n        /* \"#utility.yul\":376:408   */\n      slt\n        /* \"#utility.yul\":373:492   */\n      iszero\n      tag_127\n      jumpi\n        /* \"#utility.yul\":411:490   */\n      tag_128\n      tag_129\n      jump\t// in\n    tag_128:\n        /* \"#utility.yul\":373:492   */\n    tag_127:\n        /* \"#utility.yul\":531:532   */\n      0x00\n        /* \"#utility.yul\":556:609   */\n      tag_130\n        /* \"#utility.yul\":601:608   */\n      dup5\n        /* \"#utility.yul\":592:598   */\n      dup3\n        /* \"#utility.yul\":581:590   */\n      dup6\n        /* \"#utility.yul\":577:599   */\n      add\n        /* \"#utility.yul\":556:609   */\n      tag_118\n      jump\t// in\n    tag_130:\n        /* \"#utility.yul\":546:609   */\n      swap2\n      pop\n        /* \"#utility.yul\":502:619   */\n      pop\n        /* \"#utility.yul\":297:626   */\n      swap3\n      swap2\n      pop\n      pop\n      jump\t// out\n        /* \"#utility.yul\":632:961   */\n    tag_15:\n        /* \"#utility.yul\":691:697   */\n      0x00\n        /* \"#utility.yul\":740:742   */\n      0x20\n        /* \"#utility.yul\":728:737   */\n      dup3\n        /* \"#utility.yul\":719:726   */\n      dup5\n        /* \"#utility.yul\":715:738   */\n      sub\n        /* \"#utility.yul\":711:743   */\n      slt\n        /* \"#utility.yul\":708:827   */\n      iszero\n      tag_132\n      jumpi\n        /* \"#utility.yul\":746:825   */\n      tag_133\n      tag_129\n      jump\t// in\n    tag_133:\n        /* \"#utility.yul\":708:827   */\n    tag_132:\n        /* \"#utility.yul\":866:867   */\n      0x00\n        /* \"#utility.yul\":891:944   */\n      tag_134\n        /* \"#utility.yul\":936:943   */\n      dup5\n        /* \"#utility.yul\":927:933   */\n      dup3\n        /* \"#utility.yul\":916:925   */\n      dup6\n        /* \"#utility.yul\":912:934   */\n      add\n        /* \"#utility.yul\":891:944   */\n      tag_122\n      jump\t// in\n    tag_134:\n        /* \"#utility.yul\":881:944   */\n      swap2\n      pop\n        /* \"#utility.yul\":837:954   */\n      pop\n        /* \"#utility.yul\":632:961   */\n      swap3\n      swap2\n      pop\n      pop\n      jump\t// out\n        /* \"#utility.yul\":967:1085   */\n    tag_135:\n        /* \"#utility.yul\":1054:1078   */\n      tag_137\n        /* \"#utility.yul\":1072:1077   */\n      dup2\n        /* \"#utility.yul\":1054:1078   */\n      tag_138\n      jump\t// in\n    tag_137:\n        /* \"#utility.yul\":1049:1052   */\n      dup3\n        /* \"#utility.yul\":1042:1079   */\n      mstore\n        /* \"#utility.yul\":967:1085   */\n      pop\n      pop\n      jump\t// out\n        /* \"#utility.yul\":1091:1200   */\n    tag_139:\n        /* \"#utility.yul\":1172:1193   */\n      tag_141\n        /* \"#utility.yul\":1187:1192   */\n      dup2\n        /* \"#utility.yul\":1172:1193   */\n      tag_142\n      jump\t// in\n    tag_141:\n        /* \"#utility.yul\":1167:1170   */\n      dup3\n        /* \"#utility.yul\":1160:1194   */\n      mstore\n        /* \"#utility.yul\":1091:1200   */\n      pop\n      pop\n      jump\t// out\n        /* \"#utility.yul\":1206:1324   */\n    tag_143:\n        /* \"#utility.yul\":1293:1317   */\n      tag_145\n        /* \"#utility.yul\":1311:1316   */\n      dup2\n        /* \"#utility.yul\":1293:1317   */\n      tag_146\n      jump\t// in\n    tag_145:\n        /* \"#utility.yul\":1288:1291   */\n      dup3\n        /* \"#utility.yul\":1281:1318   */\n      mstore\n        /* \"#utility.yul\":1206:1324   */\n      pop\n      pop\n      jump\t// out\n        /* \"#utility.yul\":1330:1696   */\n    tag_147:\n        /* \"#utility.yul\":1472:1475   */\n      0x00\n        /* \"#utility.yul\":1493:1560   */\n      tag_149\n        /* \"#utility.yul\":1557:1559   */\n      0x14\n        /* \"#utility.yul\":1552:1555   */\n      dup4\n        /* \"#utility.yul\":1493:1560   */\n      tag_150\n      jump\t// in\n    tag_149:\n        /* \"#utility.yul\":1486:1560   */\n      swap2\n      pop\n        /* \"#utility.yul\":1569:1662   */\n      tag_151\n        /* \"#utility.yul\":1658:1661   */\n      dup3\n        /* \"#utility.yul\":1569:1662   */\n      tag_152\n      jump\t// in\n    tag_151:\n        /* \"#utility.yul\":1687:1689   */\n      0x20\n        /* \"#utility.yul\":1682:1685   */\n      dup3\n        /* \"#utility.yul\":1678:1690   */\n      add\n        /* \"#utility.yul\":1671:1690   */\n      swap1\n      pop\n        /* \"#utility.yul\":1330:1696   */\n      swap2\n      swap1\n      pop\n      jump\t// out\n        /* \"#utility.yul\":1702:2068   */\n    tag_153:\n        /* \"#utility.yul\":1844:1847   */\n      0x00\n        /* \"#utility.yul\":1865:1932   */\n      tag_155\n        /* \"#utility.yul\":1929:1931   */\n      0x10\n        /* \"#utility.yul\":1924:1927   */\n      dup4\n        /* \"#utility.yul\":1865:1932   */\n      tag_150\n      jump\t// in\n    tag_155:\n        /* \"#utility.yul\":1858:1932   */\n      swap2\n      pop\n        /* \"#utility.yul\":1941:2034   */\n      tag_156\n        /* \"#utility.yul\":2030:2033   */\n      dup3\n        /* \"#utility.yul\":1941:2034   */\n      tag_157\n      jump\t// in\n    tag_156:\n        /* \"#utility.yul\":2059:2061   */\n      0x20\n        /* \"#utility.yul\":2054:2057   */\n      dup3\n        /* \"#utility.yul\":2050:2062   */\n      add\n        /* \"#utility.yul\":2043:2062   */\n      swap1\n      pop\n        /* \"#utility.yul\":1702:2068   */\n      swap2\n      swap1\n      pop\n      jump\t// out\n        /* \"#utility.yul\":2074:2440   */\n    tag_158:\n        /* \"#utility.yul\":2216:2219   */\n      0x00\n        /* \"#utility.yul\":2237:2304   */\n      tag_160\n        /* \"#utility.yul\":2301:2303   */\n      0x0e\n        /* \"#utility.yul\":2296:2299   */\n      dup4\n        /* \"#utility.yul\":2237:2304   */\n      tag_150\n      jump\t// in\n    tag_160:\n        /* \"#utility.yul\":2230:2304   */\n      swap2\n      pop\n        /* \"#utility.yul\":2313:2406   */\n      tag_161\n        /* \"#utility.yul\":2402:2405   */\n      dup3\n        /* \"#utility.yul\":2313:2406   */\n      tag_162\n      jump\t// in\n    tag_161:\n        /* \"#utility.yul\":2431:2433   */\n      0x20\n        /* \"#utility.yul\":2426:2429   */\n      dup3\n        /* \"#utility.yul\":2422:2434   */\n      add\n        /* \"#utility.yul\":2415:2434   */\n      swap1\n      pop\n        /* \"#utility.yul\":2074:2440   */\n      swap2\n      swap1\n      pop\n      jump\t// out\n        /* \"#utility.yul\":2446:2812   */\n    tag_163:\n        /* \"#utility.yul\":2588:2591   */\n      0x00\n        /* \"#utility.yul\":2609:2676   */\n      tag_165\n        /* \"#utility.yul\":2673:2675   */\n      0x12\n        /* \"#utility.yul\":2668:2671   */\n      dup4\n        /* \"#utility.yul\":2609:2676   */\n      tag_150\n      jump\t// in\n    tag_165:\n        /* \"#utility.yul\":2602:2676   */\n      swap2\n      pop\n        /* \"#utility.yul\":2685:2778   */\n      tag_166\n        /* \"#utility.yul\":2774:2777   */\n      dup3\n        /* \"#utility.yul\":2685:2778   */\n      tag_167\n      jump\t// in\n    tag_166:\n        /* \"#utility.yul\":2803:2805   */\n      0x20\n        /* \"#utility.yul\":2798:2801   */\n      dup3\n        /* \"#utility.yul\":2794:2806   */\n      add\n        /* \"#utility.yul\":2787:2806   */\n      swap1\n      pop\n        /* \"#utility.yul\":2446:2812   */\n      swap2\n      swap1\n      pop\n      jump\t// out\n        /* \"#utility.yul\":2818:3184   */\n    tag_168:\n        /* \"#utility.yul\":2960:2963   */\n      0x00\n        /* \"#utility.yul\":2981:3048   */\n      tag_170\n        /* \"#utility.yul\":3045:3047   */\n      0x28\n        /* \"#utility.yul\":3040:3043   */\n      dup4\n        /* \"#utility.yul\":2981:3048   */\n      tag_150\n      jump\t// in\n    tag_170:\n        /* \"#utility.yul\":2974:3048   */\n      swap2\n      pop\n        /* \"#utility.yul\":3057:3150   */\n      tag_171\n        /* \"#utility.yul\":3146:3149   */\n      dup3\n        /* \"#utility.yul\":3057:3150   */\n      tag_172\n      jump\t// in\n    tag_171:\n        /* \"#utility.yul\":3175:3177   */\n      0x40\n        /* \"#utility.yul\":3170:3173   */\n      dup3\n        /* \"#utility.yul\":3166:3178   */\n      add\n        /* \"#utility.yul\":3159:3178   */\n      swap1\n      pop\n        /* \"#utility.yul\":2818:3184   */\n      swap2\n      swap1\n      pop\n      jump\t// out\n        /* \"#utility.yul\":3190:3556   */\n    tag_173:\n        /* \"#utility.yul\":3332:3335   */\n      0x00\n        /* \"#utility.yul\":3353:3420   */\n      tag_175\n        /* \"#utility.yul\":3417:3419   */\n      0x19\n        /* \"#utility.yul\":3412:3415   */\n      dup4\n        /* \"#utility.yul\":3353:3420   */\n      tag_150\n      jump\t// in\n    tag_175:\n        /* \"#utility.yul\":3346:3420   */\n      swap2\n      pop\n        /* \"#utility.yul\":3429:3522   */\n      tag_176\n        /* \"#utility.yul\":3518:3521   */\n      dup3\n        /* \"#utility.yul\":3429:3522   */\n      tag_177\n      jump\t// in\n    tag_176:\n        /* \"#utility.yul\":3547:3549   */\n      0x20\n        /* \"#utility.yul\":3542:3545   */\n      dup3\n        /* \"#utility.yul\":3538:3550   */\n      add\n        /* \"#utility.yul\":3531:3550   */\n      swap1\n      pop\n        /* \"#utility.yul\":3190:3556   */\n      swap2\n      swap1\n      pop\n      jump\t// out\n        /* \"#utility.yul\":3562:3928   */\n    tag_178:\n        /* \"#utility.yul\":3704:3707   */\n      0x00\n        /* \"#utility.yul\":3725:3792   */\n      tag_180\n        /* \"#utility.yul\":3789:3791   */\n      0x18\n        /* \"#utility.yul\":3784:3787   */\n      dup4\n        /* \"#utility.yul\":3725:3792   */\n      tag_150\n      jump\t// in\n    tag_180:\n        /* \"#utility.yul\":3718:3792   */\n      swap2\n      pop\n        /* \"#utility.yul\":3801:3894   */\n      tag_181\n        /* \"#utility.yul\":3890:3893   */\n      dup3\n        /* \"#utility.yul\":3801:3894   */\n      tag_182\n      jump\t// in\n    tag_181:\n        /* \"#utility.yul\":3919:3921   */\n      0x20\n        /* \"#utility.yul\":3914:3917   */\n      dup3\n        /* \"#utility.yul\":3910:3922   */\n      add\n        /* \"#utility.yul\":3903:3922   */\n      swap1\n      pop\n        /* \"#utility.yul\":3562:3928   */\n      swap2\n      swap1\n      pop\n      jump\t// out\n        /* \"#utility.yul\":3934:4300   */\n    tag_183:\n        /* \"#utility.yul\":4076:4079   */\n      0x00\n        /* \"#utility.yul\":4097:4164   */\n      tag_185\n        /* \"#utility.yul\":4161:4163   */\n      0x1e\n        /* \"#utility.yul\":4156:4159   */\n      dup4\n        /* \"#utility.yul\":4097:4164   */\n      tag_150\n      jump\t// in\n    tag_185:\n        /* \"#utility.yul\":4090:4164   */\n      swap2\n      pop\n        /* \"#utility.yul\":4173:4266   */\n      tag_186\n        /* \"#utility.yul\":4262:4265   */\n      dup3\n        /* \"#utility.yul\":4173:4266   */\n      tag_187\n      jump\t// in\n    tag_186:\n        /* \"#utility.yul\":4291:4293   */\n      0x20\n        /* \"#utility.yul\":4286:4289   */\n      dup3\n        /* \"#utility.yul\":4282:4294   */\n      add\n        /* \"#utility.yul\":4275:4294   */\n      swap1\n      pop\n        /* \"#utility.yul\":3934:4300   */\n      swap2\n      swap1\n      pop\n      jump\t// out\n        /* \"#utility.yul\":4306:4424   */\n    tag_188:\n        /* \"#utility.yul\":4393:4417   */\n      tag_190\n        /* \"#utility.yul\":4411:4416   */\n      dup2\n        /* \"#utility.yul\":4393:4417   */\n      tag_191\n      jump\t// in\n    tag_190:\n        /* \"#utility.yul\":4388:4391   */\n      dup3\n        /* \"#utility.yul\":4381:4418   */\n      mstore\n        /* \"#utility.yul\":4306:4424   */\n      pop\n      pop\n      jump\t// out\n        /* \"#utility.yul\":4430:4652   */\n    tag_25:\n        /* \"#utility.yul\":4523:4527   */\n      0x00\n        /* \"#utility.yul\":4561:4563   */\n      0x20\n        /* \"#utility.yul\":4550:4559   */\n      dup3\n        /* \"#utility.yul\":4546:4564   */\n      add\n        /* \"#utility.yul\":4538:4564   */\n      swap1\n      pop\n        /* \"#utility.yul\":4574:4645   */\n      tag_193\n        /* \"#utility.yul\":4642:4643   */\n      0x00\n        /* \"#utility.yul\":4631:4640   */\n      dup4\n        /* \"#utility.yul\":4627:4644   */\n      add\n        /* \"#utility.yul\":4618:4624   */\n      dup5\n        /* \"#utility.yul\":4574:4645   */\n      tag_135\n      jump\t// in\n    tag_193:\n        /* \"#utility.yul\":4430:4652   */\n      swap3\n      swap2\n      pop\n      pop\n      jump\t// out\n        /* \"#utility.yul\":4658:4880   */\n    tag_48:\n        /* \"#utility.yul\":4751:4755   */\n      0x00\n        /* \"#utility.yul\":4789:4791   */\n      0x20\n        /* \"#utility.yul\":4778:4787   */\n      dup3\n        /* \"#utility.yul\":4774:4792   */\n      add\n        /* \"#utility.yul\":4766:4792   */\n      swap1\n      pop\n        /* \"#utility.yul\":4802:4873   */\n      tag_195\n        /* \"#utility.yul\":4870:4871   */\n      0x00\n        /* \"#utility.yul\":4859:4868   */\n      dup4\n        /* \"#utility.yul\":4855:4872   */\n      add\n        /* \"#utility.yul\":4846:4852   */\n      dup5\n        /* \"#utility.yul\":4802:4873   */\n      tag_143\n      jump\t// in\n    tag_195:\n        /* \"#utility.yul\":4658:4880   */\n      swap3\n      swap2\n      pop\n      pop\n      jump\t// out\n        /* \"#utility.yul\":4886:5218   */\n    tag_21:\n        /* \"#utility.yul\":5007:5011   */\n      0x00\n        /* \"#utility.yul\":5045:5047   */\n      0x40\n        /* \"#utility.yul\":5034:5043   */\n      dup3\n        /* \"#utility.yul\":5030:5048   */\n      add\n        /* \"#utility.yul\":5022:5048   */\n      swap1\n      pop\n        /* \"#utility.yul\":5058:5129   */\n      tag_197\n        /* \"#utility.yul\":5126:5127   */\n      0x00\n        /* \"#utility.yul\":5115:5124   */\n      dup4\n        /* \"#utility.yul\":5111:5128   */\n      add\n        /* \"#utility.yul\":5102:5108   */\n      dup6\n        /* \"#utility.yul\":5058:5129   */\n      tag_143\n      jump\t// in\n    tag_197:\n        /* \"#utility.yul\":5139:5211   */\n      tag_198\n        /* \"#utility.yul\":5207:5209   */\n      0x20\n        /* \"#utility.yul\":5196:5205   */\n      dup4\n        /* \"#utility.yul\":5192:5210   */\n      add\n        /* \"#utility.yul\":5183:5189   */\n      dup5\n        /* \"#utility.yul\":5139:5211   */\n      tag_188\n      jump\t// in\n    tag_198:\n        /* \"#utility.yul\":4886:5218   */\n      swap4\n      swap3\n      pop\n      pop\n      pop\n      jump\t// out\n        /* \"#utility.yul\":5224:5643   */\n    tag_60:\n        /* \"#utility.yul\":5390:5394   */\n      0x00\n        /* \"#utility.yul\":5428:5430   */\n      0x20\n        /* \"#utility.yul\":5417:5426   */\n      dup3\n        /* \"#utility.yul\":5413:5431   */\n      add\n        /* \"#utility.yul\":5405:5431   */\n      swap1\n      pop\n        /* \"#utility.yul\":5477:5486   */\n      dup2\n        /* \"#utility.yul\":5471:5475   */\n      dup2\n        /* \"#utility.yul\":5467:5487   */\n      sub\n        /* \"#utility.yul\":5463:5464   */\n      0x00\n        /* \"#utility.yul\":5452:5461   */\n      dup4\n        /* \"#utility.yul\":5448:5465   */\n      add\n        /* \"#utility.yul\":5441:5488   */\n      mstore\n        /* \"#utility.yul\":5505:5636   */\n      tag_200\n        /* \"#utility.yul\":5631:5635   */\n      dup2\n        /* \"#utility.yul\":5505:5636   */\n      tag_147\n      jump\t// in\n    tag_200:\n        /* \"#utility.yul\":5497:5636   */\n      swap1\n      pop\n        /* \"#utility.yul\":5224:5643   */\n      swap2\n      swap1\n      pop\n      jump\t// out\n        /* \"#utility.yul\":5649:6068   */\n    tag_56:\n        /* \"#utility.yul\":5815:5819   */\n      0x00\n        /* \"#utility.yul\":5853:5855   */\n      0x20\n        /* \"#utility.yul\":5842:5851   */\n      dup3\n        /* \"#utility.yul\":5838:5856   */\n      add\n        /* \"#utility.yul\":5830:5856   */\n      swap1\n      pop\n        /* \"#utility.yul\":5902:5911   */\n      dup2\n        /* \"#utility.yul\":5896:5900   */\n      dup2\n        /* \"#utility.yul\":5892:5912   */\n      sub\n        /* \"#utility.yul\":5888:5889   */\n      0x00\n        /* \"#utility.yul\":5877:5886   */\n      dup4\n        /* \"#utility.yul\":5873:5890   */\n      add\n        /* \"#utility.yul\":5866:5913   */\n      mstore\n        /* \"#utility.yul\":5930:6061   */\n      tag_202\n        /* \"#utility.yul\":6056:6060   */\n      dup2\n        /* \"#utility.yul\":5930:6061   */\n      tag_153\n      jump\t// in\n    tag_202:\n        /* \"#utility.yul\":5922:6061   */\n      swap1\n      pop\n        /* \"#utility.yul\":5649:6068   */\n      swap2\n      swap1\n      pop\n      jump\t// out\n        /* \"#utility.yul\":6074:6493   */\n    tag_63:\n        /* \"#utility.yul\":6240:6244   */\n      0x00\n        /* \"#utility.yul\":6278:6280   */\n      0x20\n        /* \"#utility.yul\":6267:6276   */\n      dup3\n        /* \"#utility.yul\":6263:6281   */\n      add\n        /* \"#utility.yul\":6255:6281   */\n      swap1\n      pop\n        /* \"#utility.yul\":6327:6336   */\n      dup2\n        /* \"#utility.yul\":6321:6325   */\n      dup2\n        /* \"#utility.yul\":6317:6337   */\n      sub\n        /* \"#utility.yul\":6313:6314   */\n      0x00\n        /* \"#utility.yul\":6302:6311   */\n      dup4\n        /* \"#utility.yul\":6298:6315   */\n      add\n        /* \"#utility.yul\":6291:6338   */\n      mstore\n        /* \"#utility.yul\":6355:6486   */\n      tag_204\n        /* \"#utility.yul\":6481:6485   */\n      dup2\n        /* \"#utility.yul\":6355:6486   */\n      tag_158\n      jump\t// in\n    tag_204:\n        /* \"#utility.yul\":6347:6486   */\n      swap1\n      pop\n        /* \"#utility.yul\":6074:6493   */\n      swap2\n      swap1\n      pop\n      jump\t// out\n        /* \"#utility.yul\":6499:6918   */\n    tag_75:\n        /* \"#utility.yul\":6665:6669   */\n      0x00\n        /* \"#utility.yul\":6703:6705   */\n      0x20\n        /* \"#utility.yul\":6692:6701   */\n      dup3\n        /* \"#utility.yul\":6688:6706   */\n      add\n        /* \"#utility.yul\":6680:6706   */\n      swap1\n      pop\n        /* \"#utility.yul\":6752:6761   */\n      dup2\n        /* \"#utility.yul\":6746:6750   */\n      dup2\n        /* \"#utility.yul\":6742:6762   */\n      sub\n        /* \"#utility.yul\":6738:6739   */\n      0x00\n        /* \"#utility.yul\":6727:6736   */\n      dup4\n        /* \"#utility.yul\":6723:6740   */\n      add\n        /* \"#utility.yul\":6716:6763   */\n      mstore\n        /* \"#utility.yul\":6780:6911   */\n      tag_206\n        /* \"#utility.yul\":6906:6910   */\n      dup2\n        /* \"#utility.yul\":6780:6911   */\n      tag_163\n      jump\t// in\n    tag_206:\n        /* \"#utility.yul\":6772:6911   */\n      swap1\n      pop\n        /* \"#utility.yul\":6499:6918   */\n      swap2\n      swap1\n      pop\n      jump\t// out\n        /* \"#utility.yul\":6924:7343   */\n    tag_107:\n        /* \"#utility.yul\":7090:7094   */\n      0x00\n        /* \"#utility.yul\":7128:7130   */\n      0x20\n        /* \"#utility.yul\":7117:7126   */\n      dup3\n        /* \"#utility.yul\":7113:7131   */\n      add\n        /* \"#utility.yul\":7105:7131   */\n      swap1\n      pop\n        /* \"#utility.yul\":7177:7186   */\n      dup2\n        /* \"#utility.yul\":7171:7175   */\n      dup2\n        /* \"#utility.yul\":7167:7187   */\n      sub\n        /* \"#utility.yul\":7163:7164   */\n      0x00\n        /* \"#utility.yul\":7152:7161   */\n      dup4\n        /* \"#utility.yul\":7148:7165   */\n      add\n        /* \"#utility.yul\":7141:7188   */\n      mstore\n        /* \"#utility.yul\":7205:7336   */\n      tag_208\n        /* \"#utility.yul\":7331:7335   */\n      dup2\n        /* \"#utility.yul\":7205:7336   */\n      tag_168\n      jump\t// in\n    tag_208:\n        /* \"#utility.yul\":7197:7336   */\n      swap1\n      pop\n        /* \"#utility.yul\":6924:7343   */\n      swap2\n      swap1\n      pop\n      jump\t// out\n        /* \"#utility.yul\":7349:7768   */\n    tag_83:\n        /* \"#utility.yul\":7515:7519   */\n      0x00\n        /* \"#utility.yul\":7553:7555   */\n      0x20\n        /* \"#utility.yul\":7542:7551   */\n      dup3\n        /* \"#utility.yul\":7538:7556   */\n      add\n        /* \"#utility.yul\":7530:7556   */\n      swap1\n      pop\n        /* \"#utility.yul\":7602:7611   */\n      dup2\n        /* \"#utility.yul\":7596:7600   */\n      dup2\n        /* \"#utility.yul\":7592:7612   */\n      sub\n        /* \"#utility.yul\":7588:7589   */\n      0x00\n        /* \"#utility.yul\":7577:7586   */\n      dup4\n        /* \"#utility.yul\":7573:7590   */\n      add\n        /* \"#utility.yul\":7566:7613   */\n      mstore\n        /* \"#utility.yul\":7630:7761   */\n      tag_210\n        /* \"#utility.yul\":7756:7760   */\n      dup2\n        /* \"#utility.yul\":7630:7761   */\n      tag_173\n      jump\t// in\n    tag_210:\n        /* \"#utility.yul\":7622:7761   */\n      swap1\n      pop\n        /* \"#utility.yul\":7349:7768   */\n      swap2\n      swap1\n      pop\n      jump\t// out\n        /* \"#utility.yul\":7774:8193   */\n    tag_110:\n        /* \"#utility.yul\":7940:7944   */\n      0x00\n        /* \"#utility.yul\":7978:7980   */\n      0x20\n        /* \"#utility.yul\":7967:7976   */\n      dup3\n        /* \"#utility.yul\":7963:7981   */\n      add\n        /* \"#utility.yul\":7955:7981   */\n      swap1\n      pop\n        /* \"#utility.yul\":8027:8036   */\n      dup2\n        /* \"#utility.yul\":8021:8025   */\n      dup2\n        /* \"#utility.yul\":8017:8037   */\n      sub\n        /* \"#utility.yul\":8013:8014   */\n      0x00\n        /* \"#utility.yul\":8002:8011   */\n      dup4\n        /* \"#utility.yul\":7998:8015   */\n      add\n        /* \"#utility.yul\":7991:8038   */\n      mstore\n        /* \"#utility.yul\":8055:8186   */\n      tag_212\n        /* \"#utility.yul\":8181:8185   */\n      dup2\n        /* \"#utility.yul\":8055:8186   */\n      tag_178\n      jump\t// in\n    tag_212:\n        /* \"#utility.yul\":8047:8186   */\n      swap1\n      pop\n        /* \"#utility.yul\":7774:8193   */\n      swap2\n      swap1\n      pop\n      jump\t// out\n        /* \"#utility.yul\":8199:8618   */\n    tag_78:\n        /* \"#utility.yul\":8365:8369   */\n      0x00\n        /* \"#utility.yul\":8403:8405   */\n      0x20\n        /* \"#utility.yul\":8392:8401   */\n      dup3\n        /* \"#utility.yul\":8388:8406   */\n      add\n        /* \"#utility.yul\":8380:8406   */\n      swap1\n      pop\n        /* \"#utility.yul\":8452:8461   */\n      dup2\n        /* \"#utility.yul\":8446:8450   */\n      dup2\n        /* \"#utility.yul\":8442:8462   */\n      sub\n        /* \"#utility.yul\":8438:8439   */\n      0x00\n        /* \"#utility.yul\":8427:8436   */\n      dup4\n        /* \"#utility.yul\":8423:8440   */\n      add\n        /* \"#utility.yul\":8416:8463   */\n      mstore\n        /* \"#utility.yul\":8480:8611   */\n      tag_214\n        /* \"#utility.yul\":8606:8610   */\n      dup2\n        /* \"#utility.yul\":8480:8611   */\n      tag_183\n      jump\t// in\n    tag_214:\n        /* \"#utility.yul\":8472:8611   */\n      swap1\n      pop\n        /* \"#utility.yul\":8199:8618   */\n      swap2\n      swap1\n      pop\n      jump\t// out\n        /* \"#utility.yul\":8624:8846   */\n    tag_33:\n        /* \"#utility.yul\":8717:8721   */\n      0x00\n        /* \"#utility.yul\":8755:8757   */\n      0x20\n        /* \"#utility.yul\":8744:8753   */\n      dup3\n        /* \"#utility.yul\":8740:8758   */\n      add\n        /* \"#utility.yul\":8732:8758   */\n      swap1\n      pop\n        /* \"#utility.yul\":8768:8839   */\n      tag_216\n        /* \"#utility.yul\":8836:8837   */\n      0x00\n        /* \"#utility.yul\":8825:8834   */\n      dup4\n        /* \"#utility.yul\":8821:8838   */\n      add\n        /* \"#utility.yul\":8812:8818   */\n      dup5\n        /* \"#utility.yul\":8768:8839   */\n      tag_188\n      jump\t// in\n    tag_216:\n        /* \"#utility.yul\":8624:8846   */\n      swap3\n      swap2\n      pop\n      pop\n      jump\t// out\n        /* \"#utility.yul\":8852:9393   */\n    tag_44:\n        /* \"#utility.yul\":9023:9027   */\n      0x00\n        /* \"#utility.yul\":9061:9064   */\n      0x80\n        /* \"#utility.yul\":9050:9059   */\n      dup3\n        /* \"#utility.yul\":9046:9065   */\n      add\n        /* \"#utility.yul\":9038:9065   */\n      swap1\n      pop\n        /* \"#utility.yul\":9075:9146   */\n      tag_218\n        /* \"#utility.yul\":9143:9144   */\n      0x00\n        /* \"#utility.yul\":9132:9141   */\n      dup4\n        /* \"#utility.yul\":9128:9145   */\n      add\n        /* \"#utility.yul\":9119:9125   */\n      dup8\n        /* \"#utility.yul\":9075:9146   */\n      tag_188\n      jump\t// in\n    tag_218:\n        /* \"#utility.yul\":9156:9222   */\n      tag_219\n        /* \"#utility.yul\":9218:9220   */\n      0x20\n        /* \"#utility.yul\":9207:9216   */\n      dup4\n        /* \"#utility.yul\":9203:9221   */\n      add\n        /* \"#utility.yul\":9194:9200   */\n      dup7\n        /* \"#utility.yul\":9156:9222   */\n      tag_139\n      jump\t// in\n    tag_219:\n        /* \"#utility.yul\":9232:9304   */\n      tag_220\n        /* \"#utility.yul\":9300:9302   */\n      0x40\n        /* \"#utility.yul\":9289:9298   */\n      dup4\n        /* \"#utility.yul\":9285:9303   */\n      add\n        /* \"#utility.yul\":9276:9282   */\n      dup6\n        /* \"#utility.yul\":9232:9304   */\n      tag_135\n      jump\t// in\n    tag_220:\n        /* \"#utility.yul\":9314:9386   */\n      tag_221\n        /* \"#utility.yul\":9382:9384   */\n      0x60\n        /* \"#utility.yul\":9371:9380   */\n      dup4\n        /* \"#utility.yul\":9367:9385   */\n      add\n        /* \"#utility.yul\":9358:9364   */\n      dup5\n        /* \"#utility.yul\":9314:9386   */\n      tag_188\n      jump\t// in\n    tag_221:\n        /* \"#utility.yul\":8852:9393   */\n      swap6\n      swap5\n      pop\n      pop\n      pop\n      pop\n      pop\n      jump\t// out\n        /* \"#utility.yul\":9480:9649   */\n    tag_150:\n        /* \"#utility.yul\":9564:9575   */\n      0x00\n        /* \"#utility.yul\":9598:9604   */\n      dup3\n        /* \"#utility.yul\":9593:9596   */\n      dup3\n        /* \"#utility.yul\":9586:9605   */\n      mstore\n        /* \"#utility.yul\":9638:9642   */\n      0x20\n        /* \"#utility.yul\":9633:9636   */\n      dup3\n        /* \"#utility.yul\":9629:9643   */\n      add\n        /* \"#utility.yul\":9614:9643   */\n      swap1\n      pop\n        /* \"#utility.yul\":9480:9649   */\n      swap3\n      swap2\n      pop\n      pop\n      jump\t// out\n        /* \"#utility.yul\":9655:9960   */\n    tag_69:\n        /* \"#utility.yul\":9695:9698   */\n      0x00\n        /* \"#utility.yul\":9714:9734   */\n      tag_226\n        /* \"#utility.yul\":9732:9733   */\n      dup3\n        /* \"#utility.yul\":9714:9734   */\n      tag_191\n      jump\t// in\n    tag_226:\n        /* \"#utility.yul\":9709:9734   */\n      swap2\n      pop\n        /* \"#utility.yul\":9748:9768   */\n      tag_227\n        /* \"#utility.yul\":9766:9767   */\n      dup4\n        /* \"#utility.yul\":9748:9768   */\n      tag_191\n      jump\t// in\n    tag_227:\n        /* \"#utility.yul\":9743:9768   */\n      swap3\n      pop\n        /* \"#utility.yul\":9902:9903   */\n      dup3\n        /* \"#utility.yul\":9834:9900   */\n      0xffffffffffffffffffffffffffffffffffffffffffffffffffffffffffffffff\n        /* \"#utility.yul\":9830:9904   */\n      sub\n        /* \"#utility.yul\":9827:9828   */\n      dup3\n        /* \"#utility.yul\":9824:9905   */\n      gt\n        /* \"#utility.yul\":9821:9928   */\n      iszero\n      tag_228\n      jumpi\n        /* \"#utility.yul\":9908:9926   */\n      tag_229\n      tag_230\n      jump\t// in\n    tag_229:\n        /* \"#utility.yul\":9821:9928   */\n    tag_228:\n        /* \"#utility.yul\":9952:9953   */\n      dup3\n        /* \"#utility.yul\":9949:9950   */\n      dup3\n        /* \"#utility.yul\":9945:9954   */\n      add\n        /* \"#utility.yul\":9938:9954   */\n      swap1\n      pop\n        /* \"#utility.yul\":9655:9960   */\n      swap3\n      swap2\n      pop\n      pop\n      jump\t// out\n        /* \"#utility.yul\":9966:10151   */\n    tag_53:\n        /* \"#utility.yul\":10006:10007   */\n      0x00\n        /* \"#utility.yul\":10023:10043   */\n      tag_232\n        /* \"#utility.yul\":10041:10042   */\n      dup3\n        /* \"#utility.yul\":10023:10043   */\n      tag_191\n      jump\t// in\n    tag_232:\n        /* \"#utility.yul\":10018:10043   */\n      swap2\n      pop\n        /* \"#utility.yul\":10057:10077   */\n      tag_233\n        /* \"#utility.yul\":10075:10076   */\n      dup4\n        /* \"#utility.yul\":10057:10077   */\n      tag_191\n      jump\t// in\n    tag_233:\n        /* \"#utility.yul\":10052:10077   */\n      swap3\n      pop\n        /* \"#utility.yul\":10096:10097   */\n      dup3\n        /* \"#utility.yul\":10086:10121   */\n      tag_234\n      jumpi\n        /* \"#utility.yul\":10101:10119   */\n      tag_235\n      tag_236\n      jump\t// in\n    tag_235:\n        /* \"#utility.yul\":10086:10121   */\n    tag_234:\n        /* \"#utility.yul\":10143:10144   */\n      dup3\n        /* \"#utility.yul\":10140:10141   */\n      dup3\n        /* \"#utility.yul\":10136:10145   */\n      div\n        /* \"#utility.yul\":10131:10145   */\n      swap1\n      pop\n        /* \"#utility.yul\":9966:10151   */\n      swap3\n      swap2\n      pop\n      pop\n      jump\t// out\n        /* \"#utility.yul\":10157:10348   */\n    tag_51:\n        /* \"#utility.yul\":10197:10201   */\n      0x00\n        /* \"#utility.yul\":10217:10237   */\n      tag_238\n        /* \"#utility.yul\":10235:10236   */\n      dup3\n        /* \"#utility.yul\":10217:10237   */\n      tag_191\n      jump\t// in\n    tag_238:\n        /* \"#utility.yul\":10212:10237   */\n      swap2\n      pop\n        /* \"#utility.yul\":10251:10271   */\n      tag_239\n        /* \"#utility.yul\":10269:10270   */\n      dup4\n        /* \"#utility.yul\":10251:10271   */\n      tag_191\n      jump\t// in\n    tag_239:\n        /* \"#utility.yul\":10246:10271   */\n      swap3\n      pop\n        /* \"#utility.yul\":10290:10291   */\n      dup3\n        /* \"#utility.yul\":10287:10288   */\n      dup3\n        /* \"#utility.yul\":10284:10292   */\n      lt\n        /* \"#utility.yul\":10281:10315   */\n      iszero\n      tag_240\n      jumpi\n        /* \"#utility.yul\":10295:10313   */\n      tag_241\n      tag_230\n      jump\t// in\n    tag_241:\n        /* \"#utility.yul\":10281:10315   */\n    tag_240:\n        /* \"#utility.yul\":10340:10341   */\n      dup3\n        /* \"#utility.yul\":10337:10338   */\n      dup3\n        /* \"#utility.yul\":10333:10342   */\n      sub\n        /* \"#utility.yul\":10325:10342   */\n      swap1\n      pop\n        /* \"#utility.yul\":10157:10348   */\n      swap3\n      swap2\n      pop\n      pop\n      jump\t// out\n        /* \"#utility.yul\":10354:10450   */\n    tag_138:\n        /* \"#utility.yul\":10391:10398   */\n      0x00\n        /* \"#utility.yul\":10420:10444   */\n      tag_243\n        /* \"#utility.yul\":10438:10443   */\n      dup3\n        /* \"#utility.yul\":10420:10444   */\n      tag_244\n      jump\t// in\n    tag_243:\n        /* \"#utility.yul\":10409:10444   */\n      swap1\n      pop\n        /* \"#utility.yul\":10354:10450   */\n      swap2\n      swap1\n      pop\n      jump\t// out\n        /* \"#utility.yul\":10456:10546   */\n    tag_142:\n        /* \"#utility.yul\":10490:10497   */\n      0x00\n        /* \"#utility.yul\":10533:10538   */\n      dup2\n        /* \"#utility.yul\":10526:10539   */\n      iszero\n        /* \"#utility.yul\":10519:10540   */\n      iszero\n        /* \"#utility.yul\":10508:10540   */\n      swap1\n      pop\n        /* \"#utility.yul\":10456:10546   */\n      swap2\n      swap1\n      pop\n      jump\t// out\n        /* \"#utility.yul\":10552:10629   */\n    tag_146:\n        /* \"#utility.yul\":10589:10596   */\n      0x00\n        /* \"#utility.yul\":10618:10623   */\n      dup2\n        /* \"#utility.yul\":10607:10623   */\n      swap1\n      pop\n        /* \"#utility.yul\":10552:10629   */\n      swap2\n      swap1\n      pop\n      jump\t// out\n        /* \"#utility.yul\":10635:10761   */\n    tag_244:\n        /* \"#utility.yul\":10672:10679   */\n      0x00\n        /* \"#utility.yul\":10712:10754   */\n      0xffffffffffffffffffffffffffffffffffffffff\n        /* \"#utility.yul\":10705:10710   */\n      dup3\n        /* \"#utility.yul\":10701:10755   */\n      and\n        /* \"#utility.yul\":10690:10755   */\n      swap1\n      pop\n        /* \"#utility.yul\":10635:10761   */\n      swap2\n      swap1\n      pop\n      jump\t// out\n        /* \"#utility.yul\":10767:10844   */\n    tag_191:\n        /* \"#utility.yul\":10804:10811   */\n      0x00\n        /* \"#utility.yul\":10833:10838   */\n      dup2\n        /* \"#utility.yul\":10822:10838   */\n      swap1\n      pop\n        /* \"#utility.yul\":10767:10844   */\n      swap2\n      swap1\n      pop\n      jump\t// out\n        /* \"#utility.yul\":10850:11083   */\n    tag_103:\n        /* \"#utility.yul\":10889:10892   */\n      0x00\n        /* \"#utility.yul\":10912:10936   */\n      tag_250\n        /* \"#utility.yul\":10930:10935   */\n      dup3\n        /* \"#utility.yul\":10912:10936   */\n      tag_191\n      jump\t// in\n    tag_250:\n        /* \"#utility.yul\":10903:10936   */\n      swap2\n      pop\n        /* \"#utility.yul\":10958:11024   */\n      0xffffffffffffffffffffffffffffffffffffffffffffffffffffffffffffffff\n        /* \"#utility.yul\":10951:10956   */\n      dup3\n        /* \"#utility.yul\":10948:11025   */\n      eq\n        /* \"#utility.yul\":10945:11048   */\n      iszero\n      tag_251\n      jumpi\n        /* \"#utility.yul\":11028:11046   */\n      tag_252\n      tag_230\n      jump\t// in\n    tag_252:\n        /* \"#utility.yul\":10945:11048   */\n    tag_251:\n        /* \"#utility.yul\":11075:11076   */\n      0x01\n        /* \"#utility.yul\":11068:11073   */\n      dup3\n        /* \"#utility.yul\":11064:11077   */\n      add\n        /* \"#utility.yul\":11057:11077   */\n      swap1\n      pop\n        /* \"#utility.yul\":10850:11083   */\n      swap2\n      swap1\n      pop\n      jump\t// out\n        /* \"#utility.yul\":11089:11269   */\n    tag_230:\n        /* \"#utility.yul\":11137:11214   */\n      0x4e487b7100000000000000000000000000000000000000000000000000000000\n        /* \"#utility.yul\":11134:11135   */\n      0x00\n        /* \"#utility.yul\":11127:11215   */\n      mstore\n        /* \"#utility.yul\":11234:11238   */\n      0x11\n        /* \"#utility.yul\":11231:11232   */\n      0x04\n        /* \"#utility.yul\":11224:11239   */\n      mstore\n        /* \"#utility.yul\":11258:11262   */\n      0x24\n        /* \"#utility.yul\":11255:11256   */\n      0x00\n        /* \"#utility.yul\":11248:11263   */\n      revert\n        /* \"#utility.yul\":11275:11455   */\n    tag_236:\n        /* \"#utility.yul\":11323:11400   */\n      0x4e487b7100000000000000000000000000000000000000000000000000000000\n        /* \"#utility.yul\":11320:11321   */\n      0x00\n        /* \"#utility.yul\":11313:11401   */\n      mstore\n        /* \"#utility.yul\":11420:11424   */\n      0x12\n        /* \"#utility.yul\":11417:11418   */\n      0x04\n        /* \"#utility.yul\":11410:11425   */\n      mstore\n        /* \"#utility.yul\":11444:11448   */\n      0x24\n        /* \"#utility.yul\":11441:11442   */\n      0x00\n        /* \"#utility.yul\":11434:11449   */\n      revert\n        /* \"#utility.yul\":11461:11641   */\n    tag_66:\n        /* \"#utility.yul\":11509:11586   */\n      0x4e487b7100000000000000000000000000000000000000000000000000000000\n        /* \"#utility.yul\":11506:11507   */\n      0x00\n        /* \"#utility.yul\":11499:11587   */\n      mstore\n        /* \"#utility.yul\":11606:11610   */\n      0x32\n        /* \"#utility.yul\":11603:11604   */\n      0x04\n        /* \"#utility.yul\":11596:11611   */\n      mstore\n        /* \"#utility.yul\":11630:11634   */\n      0x24\n        /* \"#utility.yul\":11627:11628   */\n      0x00\n        /* \"#utility.yul\":11620:11635   */\n      revert\n        /* \"#utility.yul\":11770:11887   */\n    tag_129:\n        /* \"#utility.yul\":11879:11880   */\n      0x00\n        /* \"#utility.yul\":11876:11877   */\n      dup1\n        /* \"#utility.yul\":11869:11881   */\n      revert\n        /* \"#utility.yul\":11893:12063   */\n    tag_152:\n        /* \"#utility.yul\":12033:12055   */\n      0x486173206e6f20726967687420746f20766f7465000000000000000000000000\n        /* \"#utility.yul\":12029:12030   */\n      0x00\n        /* \"#utility.yul\":12021:12027   */\n      dup3\n        /* \"#utility.yul\":12017:12031   */\n      add\n        /* \"#utility.yul\":12010:12056   */\n      mstore\n        /* \"#utility.yul\":11893:12063   */\n      pop\n      jump\t// out\n        /* \"#utility.yul\":12069:12235   */\n    tag_157:\n        /* \"#utility.yul\":12209:12227   */\n      0x566f74696e6720697320656e6465642100000000000000000000000000000000\n        /* \"#utility.yul\":12205:12206   */\n      0x00\n        /* \"#utility.yul\":12197:12203   */\n      dup3\n        /* \"#utility.yul\":12193:12207   */\n      add\n        /* \"#utility.yul\":12186:12228   */\n      mstore\n        /* \"#utility.yul\":12069:12235   */\n      pop\n      jump\t// out\n        /* \"#utility.yul\":12241:12405   */\n    tag_162:\n        /* \"#utility.yul\":12381:12397   */\n      0x416c726561647920766f7465642e000000000000000000000000000000000000\n        /* \"#utility.yul\":12377:12378   */\n      0x00\n        /* \"#utility.yul\":12369:12375   */\n      dup3\n        /* \"#utility.yul\":12365:12379   */\n      add\n        /* \"#utility.yul\":12358:12398   */\n      mstore\n        /* \"#utility.yul\":12241:12405   */\n      pop\n      jump\t// out\n        /* \"#utility.yul\":12411:12579   */\n    tag_167:\n        /* \"#utility.yul\":12551:12571   */\n      0x596f7520616c726561647920766f7465642e0000000000000000000000000000\n        /* \"#utility.yul\":12547:12548   */\n      0x00\n        /* \"#utility.yul\":12539:12545   */\n      dup3\n        /* \"#utility.yul\":12535:12549   */\n      add\n        /* \"#utility.yul\":12528:12572   */\n      mstore\n        /* \"#utility.yul\":12411:12579   */\n      pop\n      jump\t// out\n        /* \"#utility.yul\":12585:12812   */\n    tag_172:\n        /* \"#utility.yul\":12725:12759   */\n      0x4f6e6c79206368616972706572736f6e2063616e206769766520726967687420\n        /* \"#utility.yul\":12721:12722   */\n      0x00\n        /* \"#utility.yul\":12713:12719   */\n      dup3\n        /* \"#utility.yul\":12709:12723   */\n      add\n        /* \"#utility.yul\":12702:12760   */\n      mstore\n        /* \"#utility.yul\":12794:12804   */\n      0x746f20766f74652e000000000000000000000000000000000000000000000000\n        /* \"#utility.yul\":12789:12791   */\n      0x20\n        /* \"#utility.yul\":12781:12787   */\n      dup3\n        /* \"#utility.yul\":12777:12792   */\n      add\n        /* \"#utility.yul\":12770:12805   */\n      mstore\n        /* \"#utility.yul\":12585:12812   */\n      pop\n      jump\t// out\n        /* \"#utility.yul\":12818:12993   */\n    tag_177:\n        /* \"#utility.yul\":12958:12985   */\n      0x466f756e64206c6f6f7020696e2064656c65676174696f6e2e00000000000000\n        /* \"#utility.yul\":12954:12955   */\n      0x00\n        /* \"#utility.yul\":12946:12952   */\n      dup3\n        /* \"#utility.yul\":12942:12956   */\n      add\n        /* \"#utility.yul\":12935:12986   */\n      mstore\n        /* \"#utility.yul\":12818:12993   */\n      pop\n      jump\t// out\n        /* \"#utility.yul\":12999:13173   */\n    tag_182:\n        /* \"#utility.yul\":13139:13165   */\n      0x54686520766f74657220616c726561647920766f7465642e0000000000000000\n        /* \"#utility.yul\":13135:13136   */\n      0x00\n        /* \"#utility.yul\":13127:13133   */\n      dup3\n        /* \"#utility.yul\":13123:13137   */\n      add\n        /* \"#utility.yul\":13116:13166   */\n      mstore\n        /* \"#utility.yul\":12999:13173   */\n      pop\n      jump\t// out\n        /* \"#utility.yul\":13179:13359   */\n    tag_187:\n        /* \"#utility.yul\":13319:13351   */\n      0x53656c662d64656c65676174696f6e20697320646973616c6c6f7765642e0000\n        /* \"#utility.yul\":13315:13316   */\n      0x00\n        /* \"#utility.yul\":13307:13313   */\n      dup3\n        /* \"#utility.yul\":13303:13317   */\n      add\n        /* \"#utility.yul\":13296:13352   */\n      mstore\n        /* \"#utility.yul\":13179:13359   */\n      pop\n      jump\t// out\n        /* \"#utility.yul\":13365:13487   */\n    tag_121:\n        /* \"#utility.yul\":13438:13462   */\n      tag_268\n        /* \"#utility.yul\":13456:13461   */\n      dup2\n        /* \"#utility.yul\":13438:13462   */\n      tag_138\n      jump\t// in\n    tag_268:\n        /* \"#utility.yul\":13431:13436   */\n      dup2\n        /* \"#utility.yul\":13428:13463   */\n      eq\n        /* \"#utility.yul\":13418:13481   */\n      tag_269\n      jumpi\n        /* \"#utility.yul\":13477:13478   */\n      0x00\n        /* \"#utility.yul\":13474:13475   */\n      dup1\n        /* \"#utility.yul\":13467:13479   */\n      revert\n        /* \"#utility.yul\":13418:13481   */\n    tag_269:\n        /* \"#utility.yul\":13365:13487   */\n      pop\n      jump\t// out\n        /* \"#utility.yul\":13493:13615   */\n    tag_125:\n        /* \"#utility.yul\":13566:13590   */\n      tag_271\n        /* \"#utility.yul\":13584:13589   */\n      dup2\n        /* \"#utility.yul\":13566:13590   */\n      tag_191\n      jump\t// in\n    tag_271:\n        /* \"#utility.yul\":13559:13564   */\n      dup2\n        /* \"#utility.yul\":13556:13591   */\n      eq\n        /* \"#utility.yul\":13546:13609   */\n      tag_272\n      jumpi\n        /* \"#utility.yul\":13605:13606   */\n      0x00\n        /* \"#utility.yul\":13602:13603   */\n      dup1\n        /* \"#utility.yul\":13595:13607   */\n      revert\n        /* \"#utility.yul\":13546:13609   */\n    tag_272:\n        /* \"#utility.yul\":13493:13615   */\n      pop\n      jump\t// out\n\n    auxdata: 0xa2646970667358221220cdbcbb0a4bdfeb6bd43089760412d850e97503be26808c872dd36154fea5c86e64736f6c63430008070033\n}\n",
				"bytecode": {
					"linkReferences": {},
					"object": "60806040523480156200001157600080fd5b50604051620016003803806200160083398181016040528101906200003791906200024b565b336000806101000a81548173ffffffffffffffffffffffffffffffffffffffff021916908373ffffffffffffffffffffffffffffffffffffffff1602179055506001600260008060009054906101000a900473ffffffffffffffffffffffffffffffffffffffff1673ffffffffffffffffffffffffffffffffffffffff1673ffffffffffffffffffffffffffffffffffffffff168152602001908152602001600020600001819055504260018190555060005b81518110156200017e5760036040518060400160405280848481518110620001175762000116620003bb565b5b602002602001015181526020016000815250908060018154018082558091505060019003906000526020600020906002020160009091909190915060008201518160000155602082015181600101555050808062000175906200033e565b915050620000ea565b505062000458565b60006200019d6200019784620002c5565b6200029c565b90508083825260208201905082856020860282011115620001c357620001c26200041e565b5b60005b85811015620001f75781620001dc888262000234565b845260208401935060208301925050600181019050620001c6565b5050509392505050565b600082601f83011262000219576200021862000419565b5b81516200022b84826020860162000186565b91505092915050565b60008151905062000245816200043e565b92915050565b60006020828403121562000264576200026362000428565b5b600082015167ffffffffffffffff81111562000285576200028462000423565b5b620002938482850162000201565b91505092915050565b6000620002a8620002bb565b9050620002b6828262000308565b919050565b6000604051905090565b600067ffffffffffffffff821115620002e357620002e2620003ea565b5b602082029050602081019050919050565b6000819050919050565b6000819050919050565b62000313826200042d565b810181811067ffffffffffffffff82111715620003355762000334620003ea565b5b80604052505050565b60006200034b82620002fe565b91507fffffffffffffffffffffffffffffffffffffffffffffffffffffffffffffffff8214156200038157620003806200038c565b5b600182019050919050565b7f4e487b7100000000000000000000000000000000000000000000000000000000600052601160045260246000fd5b7f4e487b7100000000000000000000000000000000000000000000000000000000600052603260045260246000fd5b7f4e487b7100000000000000000000000000000000000000000000000000000000600052604160045260246000fd5b600080fd5b600080fd5b600080fd5b600080fd5b6000601f19601f8301169050919050565b6200044981620002f4565b81146200045557600080fd5b50565b61119880620004686000396000f3fe608060405234801561001057600080fd5b50600436106100935760003560e01c8063609ff1bd11610066578063609ff1bd1461011f57806378e979251461013d5780639e7b8d611461015b578063a3ec138d14610177578063e2ba53f0146101aa57610093565b80630121b93f14610098578063013cf08b146100b45780632e4176cf146100e55780635c19a95c14610103575b600080fd5b6100b260048036038101906100ad9190610a8d565b6101c8565b005b6100ce60048036038101906100c99190610a8d565b61036b565b6040516100dc929190610c44565b60405180910390f35b6100ed61039f565b6040516100fa9190610c0e565b60405180910390f35b61011d60048036038101906101189190610a60565b6103c3565b005b61012761075f565b6040516101349190610d6d565b60405180910390f35b6101456107e7565b6040516101529190610d6d565b60405180910390f35b61017560048036038101906101709190610a60565b6107ed565b005b610191600480360381019061018c9190610a60565b6109a5565b6040516101a19493929190610d88565b60405180910390f35b6101b2610a02565b6040516101bf9190610c29565b60405180910390f35b6005603c600154426101da9190610e65565b6101e49190610e34565b11610224576040517f08c379a000000000000000000000000000000000000000000000000000000000815260040161021b90610c8d565b60405180910390fd5b6000600260003373ffffffffffffffffffffffffffffffffffffffff1673ffffffffffffffffffffffffffffffffffffffff16815260200190815260200160002090506000816000015414156102af576040517f08c379a00000000000000000000000000000000000000000000000000000000081526004016102a690610c6d565b60405180910390fd5b8060010160009054906101000a900460ff1615610301576040517f08c379a00000000000000000000000000000000000000000000000000000000081526004016102f890610cad565b60405180910390fd5b60018160010160006101000a81548160ff0219169083151502179055508181600201819055508060000154600383815481106103405761033f610f92565b5b906000526020600020906002020160010160008282546103609190610dde565b925050819055505050565b6003818154811061037b57600080fd5b90600052602060002090600202016000915090508060000154908060010154905082565b60008054906101000a900473ffffffffffffffffffffffffffffffffffffffff1681565b6000600260003373ffffffffffffffffffffffffffffffffffffffff1673ffffffffffffffffffffffffffffffffffffffff16815260200190815260200160002090508060010160009054906101000a900460ff1615610458576040517f08c379a000000000000000000000000000000000000000000000000000000000815260040161044f90610ccd565b60405180910390fd5b3373ffffffffffffffffffffffffffffffffffffffff168273ffffffffffffffffffffffffffffffffffffffff1614156104c7576040517f08c379a00000000000000000000000000000000000000000000000000000000081526004016104be90610d4d565b60405180910390fd5b5b600073ffffffffffffffffffffffffffffffffffffffff16600260008473ffffffffffffffffffffffffffffffffffffffff1673ffffffffffffffffffffffffffffffffffffffff16815260200190815260200160002060010160019054906101000a900473ffffffffffffffffffffffffffffffffffffffff1673ffffffffffffffffffffffffffffffffffffffff161461063757600260008373ffffffffffffffffffffffffffffffffffffffff1673ffffffffffffffffffffffffffffffffffffffff16815260200190815260200160002060010160019054906101000a900473ffffffffffffffffffffffffffffffffffffffff1691503373ffffffffffffffffffffffffffffffffffffffff168273ffffffffffffffffffffffffffffffffffffffff161415610632576040517f08c379a000000000000000000000000000000000000000000000000000000000815260040161062990610d0d565b60405180910390fd5b6104c8565b60018160010160006101000a81548160ff021916908315150217905550818160010160016101000a81548173ffffffffffffffffffffffffffffffffffffffff021916908373ffffffffffffffffffffffffffffffffffffffff1602179055506000600260008473ffffffffffffffffffffffffffffffffffffffff1673ffffffffffffffffffffffffffffffffffffffff16815260200190815260200160002090508060010160009054906101000a900460ff161561073a578160000154600382600201548154811061070e5761070d610f92565b5b9060005260206000209060020201600101600082825461072e9190610dde565b9250508190555061075a565b81600001548160000160008282546107529190610dde565b925050819055505b505050565b6000806000905060005b6003805490508110156107e257816003828154811061078b5761078a610f92565b5b90600052602060002090600202016001015411156107cf57600381815481106107b7576107b6610f92565b5b90600052602060002090600202016001015491508092505b80806107da90610eeb565b915050610769565b505090565b60015481565b60008054906101000a900473ffffffffffffffffffffffffffffffffffffffff1673ffffffffffffffffffffffffffffffffffffffff163373ffffffffffffffffffffffffffffffffffffffff161461087b576040517f08c379a000000000000000000000000000000000000000000000000000000000815260040161087290610ced565b60405180910390fd5b600260008273ffffffffffffffffffffffffffffffffffffffff1673ffffffffffffffffffffffffffffffffffffffff16815260200190815260200160002060010160009054906101000a900460ff161561090b576040517f08c379a000000000000000000000000000000000000000000000000000000000815260040161090290610d2d565b60405180910390fd5b6000600260008373ffffffffffffffffffffffffffffffffffffffff1673ffffffffffffffffffffffffffffffffffffffff168152602001908152602001600020600001541461095a57600080fd5b6001600260008373ffffffffffffffffffffffffffffffffffffffff1673ffffffffffffffffffffffffffffffffffffffff1681526020019081526020016000206000018190555050565b60026020528060005260406000206000915090508060000154908060010160009054906101000a900460ff16908060010160019054906101000a900473ffffffffffffffffffffffffffffffffffffffff16908060020154905084565b60006003610a0e61075f565b81548110610a1f57610a1e610f92565b5b906000526020600020906002020160000154905090565b600081359050610a4581611134565b92915050565b600081359050610a5a8161114b565b92915050565b600060208284031215610a7657610a75610fc1565b5b6000610a8484828501610a36565b91505092915050565b600060208284031215610aa357610aa2610fc1565b5b6000610ab184828501610a4b565b91505092915050565b610ac381610e99565b82525050565b610ad281610eab565b82525050565b610ae181610eb7565b82525050565b6000610af4601483610dcd565b9150610aff82610fc6565b602082019050919050565b6000610b17601083610dcd565b9150610b2282610fef565b602082019050919050565b6000610b3a600e83610dcd565b9150610b4582611018565b602082019050919050565b6000610b5d601283610dcd565b9150610b6882611041565b602082019050919050565b6000610b80602883610dcd565b9150610b8b8261106a565b604082019050919050565b6000610ba3601983610dcd565b9150610bae826110b9565b602082019050919050565b6000610bc6601883610dcd565b9150610bd1826110e2565b602082019050919050565b6000610be9601e83610dcd565b9150610bf48261110b565b602082019050919050565b610c0881610ee1565b82525050565b6000602082019050610c236000830184610aba565b92915050565b6000602082019050610c3e6000830184610ad8565b92915050565b6000604082019050610c596000830185610ad8565b610c666020830184610bff565b9392505050565b60006020820190508181036000830152610c8681610ae7565b9050919050565b60006020820190508181036000830152610ca681610b0a565b9050919050565b60006020820190508181036000830152610cc681610b2d565b9050919050565b60006020820190508181036000830152610ce681610b50565b9050919050565b60006020820190508181036000830152610d0681610b73565b9050919050565b60006020820190508181036000830152610d2681610b96565b9050919050565b60006020820190508181036000830152610d4681610bb9565b9050919050565b60006020820190508181036000830152610d6681610bdc565b9050919050565b6000602082019050610d826000830184610bff565b92915050565b6000608082019050610d9d6000830187610bff565b610daa6020830186610ac9565b610db76040830185610aba565b610dc46060830184610bff565b95945050505050565b600082825260208201905092915050565b6000610de982610ee1565b9150610df483610ee1565b9250827fffffffffffffffffffffffffffffffffffffffffffffffffffffffffffffffff03821115610e2957610e28610f34565b5b828201905092915050565b6000610e3f82610ee1565b9150610e4a83610ee1565b925082610e5a57610e59610f63565b5b828204905092915050565b6000610e7082610ee1565b9150610e7b83610ee1565b925082821015610e8e57610e8d610f34565b5b828203905092915050565b6000610ea482610ec1565b9050919050565b60008115159050919050565b6000819050919050565b600073ffffffffffffffffffffffffffffffffffffffff82169050919050565b6000819050919050565b6000610ef682610ee1565b91507fffffffffffffffffffffffffffffffffffffffffffffffffffffffffffffffff821415610f2957610f28610f34565b5b600182019050919050565b7f4e487b7100000000000000000000000000000000000000000000000000000000600052601160045260246000fd5b7f4e487b7100000000000000000000000000000000000000000000000000000000600052601260045260246000fd5b7f4e487b7100000000000000000000000000000000000000000000000000000000600052603260045260246000fd5b600080fd5b7f486173206e6f20726967687420746f20766f7465000000000000000000000000600082015250565b7f566f74696e6720697320656e6465642100000000000000000000000000000000600082015250565b7f416c726561647920766f7465642e000000000000000000000000000000000000600082015250565b7f596f7520616c726561647920766f7465642e0000000000000000000000000000600082015250565b7f4f6e6c79206368616972706572736f6e2063616e20676976652072696768742060008201527f746f20766f74652e000000000000000000000000000000000000000000000000602082015250565b7f466f756e64206c6f6f7020696e2064656c65676174696f6e2e00000000000000600082015250565b7f54686520766f74657220616c726561647920766f7465642e0000000000000000600082015250565b7f53656c662d64656c65676174696f6e20697320646973616c6c6f7765642e0000600082015250565b61113d81610e99565b811461114857600080fd5b50565b61115481610ee1565b811461115f57600080fd5b5056fea2646970667358221220cdbcbb0a4bdfeb6bd43089760412d850e97503be26808c872dd36154fea5c86e64736f6c63430008070033",
					"opcodes": "PUSH1 0x80 PUSH1 0x40 MSTORE CALLVALUE DUP1 ISZERO PUSH3 0x11 JUMPI PUSH1 0x0 DUP1 REVERT JUMPDEST POP PUSH1 0x40 MLOAD PUSH3 0x1600 CODESIZE SUB DUP1 PUSH3 0x1600 DUP4 CODECOPY DUP2 DUP2 ADD PUSH1 0x40 MSTORE DUP2 ADD SWAP1 PUSH3 0x37 SWAP2 SWAP1 PUSH3 0x24B JUMP JUMPDEST CALLER PUSH1 0x0 DUP1 PUSH2 0x100 EXP DUP2 SLOAD DUP2 PUSH20 0xFFFFFFFFFFFFFFFFFFFFFFFFFFFFFFFFFFFFFFFF MUL NOT AND SWAP1 DUP4 PUSH20 0xFFFFFFFFFFFFFFFFFFFFFFFFFFFFFFFFFFFFFFFF AND MUL OR SWAP1 SSTORE POP PUSH1 0x1 PUSH1 0x2 PUSH1 0x0 DUP1 PUSH1 0x0 SWAP1 SLOAD SWAP1 PUSH2 0x100 EXP SWAP1 DIV PUSH20 0xFFFFFFFFFFFFFFFFFFFFFFFFFFFFFFFFFFFFFFFF AND PUSH20 0xFFFFFFFFFFFFFFFFFFFFFFFFFFFFFFFFFFFFFFFF AND PUSH20 0xFFFFFFFFFFFFFFFFFFFFFFFFFFFFFFFFFFFFFFFF AND DUP2 MSTORE PUSH1 0x20 ADD SWAP1 DUP2 MSTORE PUSH1 0x20 ADD PUSH1 0x0 KECCAK256 PUSH1 0x0 ADD DUP2 SWAP1 SSTORE POP TIMESTAMP PUSH1 0x1 DUP2 SWAP1 SSTORE POP PUSH1 0x0 JUMPDEST DUP2 MLOAD DUP2 LT ISZERO PUSH3 0x17E JUMPI PUSH1 0x3 PUSH1 0x40 MLOAD DUP1 PUSH1 0x40 ADD PUSH1 0x40 MSTORE DUP1 DUP5 DUP5 DUP2 MLOAD DUP2 LT PUSH3 0x117 JUMPI PUSH3 0x116 PUSH3 0x3BB JUMP JUMPDEST JUMPDEST PUSH1 0x20 MUL PUSH1 0x20 ADD ADD MLOAD DUP2 MSTORE PUSH1 0x20 ADD PUSH1 0x0 DUP2 MSTORE POP SWAP1 DUP1 PUSH1 0x1 DUP2 SLOAD ADD DUP1 DUP3 SSTORE DUP1 SWAP2 POP POP PUSH1 0x1 SWAP1 SUB SWAP1 PUSH1 0x0 MSTORE PUSH1 0x20 PUSH1 0x0 KECCAK256 SWAP1 PUSH1 0x2 MUL ADD PUSH1 0x0 SWAP1 SWAP2 SWAP1 SWAP2 SWAP1 SWAP2 POP PUSH1 0x0 DUP3 ADD MLOAD DUP2 PUSH1 0x0 ADD SSTORE PUSH1 0x20 DUP3 ADD MLOAD DUP2 PUSH1 0x1 ADD SSTORE POP POP DUP1 DUP1 PUSH3 0x175 SWAP1 PUSH3 0x33E JUMP JUMPDEST SWAP2 POP POP PUSH3 0xEA JUMP JUMPDEST POP POP PUSH3 0x458 JUMP JUMPDEST PUSH1 0x0 PUSH3 0x19D PUSH3 0x197 DUP5 PUSH3 0x2C5 JUMP JUMPDEST PUSH3 0x29C JUMP JUMPDEST SWAP1 POP DUP1 DUP4 DUP3 MSTORE PUSH1 0x20 DUP3 ADD SWAP1 POP DUP3 DUP6 PUSH1 0x20 DUP7 MUL DUP3 ADD GT ISZERO PUSH3 0x1C3 JUMPI PUSH3 0x1C2 PUSH3 0x41E JUMP JUMPDEST JUMPDEST PUSH1 0x0 JUMPDEST DUP6 DUP2 LT ISZERO PUSH3 0x1F7 JUMPI DUP2 PUSH3 0x1DC DUP9 DUP3 PUSH3 0x234 JUMP JUMPDEST DUP5 MSTORE PUSH1 0x20 DUP5 ADD SWAP4 POP PUSH1 0x20 DUP4 ADD SWAP3 POP POP PUSH1 0x1 DUP2 ADD SWAP1 POP PUSH3 0x1C6 JUMP JUMPDEST POP POP POP SWAP4 SWAP3 POP POP POP JUMP JUMPDEST PUSH1 0x0 DUP3 PUSH1 0x1F DUP4 ADD SLT PUSH3 0x219 JUMPI PUSH3 0x218 PUSH3 0x419 JUMP JUMPDEST JUMPDEST DUP2 MLOAD PUSH3 0x22B DUP5 DUP3 PUSH1 0x20 DUP7 ADD PUSH3 0x186 JUMP JUMPDEST SWAP2 POP POP SWAP3 SWAP2 POP POP JUMP JUMPDEST PUSH1 0x0 DUP2 MLOAD SWAP1 POP PUSH3 0x245 DUP2 PUSH3 0x43E JUMP JUMPDEST SWAP3 SWAP2 POP POP JUMP JUMPDEST PUSH1 0x0 PUSH1 0x20 DUP3 DUP5 SUB SLT ISZERO PUSH3 0x264 JUMPI PUSH3 0x263 PUSH3 0x428 JUMP JUMPDEST JUMPDEST PUSH1 0x0 DUP3 ADD MLOAD PUSH8 0xFFFFFFFFFFFFFFFF DUP2 GT ISZERO PUSH3 0x285 JUMPI PUSH3 0x284 PUSH3 0x423 JUMP JUMPDEST JUMPDEST PUSH3 0x293 DUP5 DUP3 DUP6 ADD PUSH3 0x201 JUMP JUMPDEST SWAP2 POP POP SWAP3 SWAP2 POP POP JUMP JUMPDEST PUSH1 0x0 PUSH3 0x2A8 PUSH3 0x2BB JUMP JUMPDEST SWAP1 POP PUSH3 0x2B6 DUP3 DUP3 PUSH3 0x308 JUMP JUMPDEST SWAP2 SWAP1 POP JUMP JUMPDEST PUSH1 0x0 PUSH1 0x40 MLOAD SWAP1 POP SWAP1 JUMP JUMPDEST PUSH1 0x0 PUSH8 0xFFFFFFFFFFFFFFFF DUP3 GT ISZERO PUSH3 0x2E3 JUMPI PUSH3 0x2E2 PUSH3 0x3EA JUMP JUMPDEST JUMPDEST PUSH1 0x20 DUP3 MUL SWAP1 POP PUSH1 0x20 DUP2 ADD SWAP1 POP SWAP2 SWAP1 POP JUMP JUMPDEST PUSH1 0x0 DUP2 SWAP1 POP SWAP2 SWAP1 POP JUMP JUMPDEST PUSH1 0x0 DUP2 SWAP1 POP SWAP2 SWAP1 POP JUMP JUMPDEST PUSH3 0x313 DUP3 PUSH3 0x42D JUMP JUMPDEST DUP2 ADD DUP2 DUP2 LT PUSH8 0xFFFFFFFFFFFFFFFF DUP3 GT OR ISZERO PUSH3 0x335 JUMPI PUSH3 0x334 PUSH3 0x3EA JUMP JUMPDEST JUMPDEST DUP1 PUSH1 0x40 MSTORE POP POP POP JUMP JUMPDEST PUSH1 0x0 PUSH3 0x34B DUP3 PUSH3 0x2FE JUMP JUMPDEST SWAP2 POP PUSH32 0xFFFFFFFFFFFFFFFFFFFFFFFFFFFFFFFFFFFFFFFFFFFFFFFFFFFFFFFFFFFFFFFF DUP3 EQ ISZERO PUSH3 0x381 JUMPI PUSH3 0x380 PUSH3 0x38C JUMP JUMPDEST JUMPDEST PUSH1 0x1 DUP3 ADD SWAP1 POP SWAP2 SWAP1 POP JUMP JUMPDEST PUSH32 0x4E487B7100000000000000000000000000000000000000000000000000000000 PUSH1 0x0 MSTORE PUSH1 0x11 PUSH1 0x4 MSTORE PUSH1 0x24 PUSH1 0x0 REVERT JUMPDEST PUSH32 0x4E487B7100000000000000000000000000000000000000000000000000000000 PUSH1 0x0 MSTORE PUSH1 0x32 PUSH1 0x4 MSTORE PUSH1 0x24 PUSH1 0x0 REVERT JUMPDEST PUSH32 0x4E487B7100000000000000000000000000000000000000000000000000000000 PUSH1 0x0 MSTORE PUSH1 0x41 PUSH1 0x4 MSTORE PUSH1 0x24 PUSH1 0x0 REVERT JUMPDEST PUSH1 0x0 DUP1 REVERT JUMPDEST PUSH1 0x0 DUP1 REVERT JUMPDEST PUSH1 0x0 DUP1 REVERT JUMPDEST PUSH1 0x0 DUP1 REVERT JUMPDEST PUSH1 0x0 PUSH1 0x1F NOT PUSH1 0x1F DUP4 ADD AND SWAP1 POP SWAP2 SWAP1 POP JUMP JUMPDEST PUSH3 0x449 DUP2 PUSH3 0x2F4 JUMP JUMPDEST DUP2 EQ PUSH3 0x455 JUMPI PUSH1 0x0 DUP1 REVERT JUMPDEST POP JUMP JUMPDEST PUSH2 0x1198 DUP1 PUSH3 0x468 PUSH1 0x0 CODECOPY PUSH1 0x0 RETURN INVALID PUSH1 0x80 PUSH1 0x40 MSTORE CALLVALUE DUP1 ISZERO PUSH2 0x10 JUMPI PUSH1 0x0 DUP1 REVERT JUMPDEST POP PUSH1 0x4 CALLDATASIZE LT PUSH2 0x93 JUMPI PUSH1 0x0 CALLDATALOAD PUSH1 0xE0 SHR DUP1 PUSH4 0x609FF1BD GT PUSH2 0x66 JUMPI DUP1 PUSH4 0x609FF1BD EQ PUSH2 0x11F JUMPI DUP1 PUSH4 0x78E97925 EQ PUSH2 0x13D JUMPI DUP1 PUSH4 0x9E7B8D61 EQ PUSH2 0x15B JUMPI DUP1 PUSH4 0xA3EC138D EQ PUSH2 0x177 JUMPI DUP1 PUSH4 0xE2BA53F0 EQ PUSH2 0x1AA JUMPI PUSH2 0x93 JUMP JUMPDEST DUP1 PUSH4 0x121B93F EQ PUSH2 0x98 JUMPI DUP1 PUSH4 0x13CF08B EQ PUSH2 0xB4 JUMPI DUP1 PUSH4 0x2E4176CF EQ PUSH2 0xE5 JUMPI DUP1 PUSH4 0x5C19A95C EQ PUSH2 0x103 JUMPI JUMPDEST PUSH1 0x0 DUP1 REVERT JUMPDEST PUSH2 0xB2 PUSH1 0x4 DUP1 CALLDATASIZE SUB DUP2 ADD SWAP1 PUSH2 0xAD SWAP2 SWAP1 PUSH2 0xA8D JUMP JUMPDEST PUSH2 0x1C8 JUMP JUMPDEST STOP JUMPDEST PUSH2 0xCE PUSH1 0x4 DUP1 CALLDATASIZE SUB DUP2 ADD SWAP1 PUSH2 0xC9 SWAP2 SWAP1 PUSH2 0xA8D JUMP JUMPDEST PUSH2 0x36B JUMP JUMPDEST PUSH1 0x40 MLOAD PUSH2 0xDC SWAP3 SWAP2 SWAP1 PUSH2 0xC44 JUMP JUMPDEST PUSH1 0x40 MLOAD DUP1 SWAP2 SUB SWAP1 RETURN JUMPDEST PUSH2 0xED PUSH2 0x39F JUMP JUMPDEST PUSH1 0x40 MLOAD PUSH2 0xFA SWAP2 SWAP1 PUSH2 0xC0E JUMP JUMPDEST PUSH1 0x40 MLOAD DUP1 SWAP2 SUB SWAP1 RETURN JUMPDEST PUSH2 0x11D PUSH1 0x4 DUP1 CALLDATASIZE SUB DUP2 ADD SWAP1 PUSH2 0x118 SWAP2 SWAP1 PUSH2 0xA60 JUMP JUMPDEST PUSH2 0x3C3 JUMP JUMPDEST STOP JUMPDEST PUSH2 0x127 PUSH2 0x75F JUMP JUMPDEST PUSH1 0x40 MLOAD PUSH2 0x134 SWAP2 SWAP1 PUSH2 0xD6D JUMP JUMPDEST PUSH1 0x40 MLOAD DUP1 SWAP2 SUB SWAP1 RETURN JUMPDEST PUSH2 0x145 PUSH2 0x7E7 JUMP JUMPDEST PUSH1 0x40 MLOAD PUSH2 0x152 SWAP2 SWAP1 PUSH2 0xD6D JUMP JUMPDEST PUSH1 0x40 MLOAD DUP1 SWAP2 SUB SWAP1 RETURN JUMPDEST PUSH2 0x175 PUSH1 0x4 DUP1 CALLDATASIZE SUB DUP2 ADD SWAP1 PUSH2 0x170 SWAP2 SWAP1 PUSH2 0xA60 JUMP JUMPDEST PUSH2 0x7ED JUMP JUMPDEST STOP JUMPDEST PUSH2 0x191 PUSH1 0x4 DUP1 CALLDATASIZE SUB DUP2 ADD SWAP1 PUSH2 0x18C SWAP2 SWAP1 PUSH2 0xA60 JUMP JUMPDEST PUSH2 0x9A5 JUMP JUMPDEST PUSH1 0x40 MLOAD PUSH2 0x1A1 SWAP5 SWAP4 SWAP3 SWAP2 SWAP1 PUSH2 0xD88 JUMP JUMPDEST PUSH1 0x40 MLOAD DUP1 SWAP2 SUB SWAP1 RETURN JUMPDEST PUSH2 0x1B2 PUSH2 0xA02 JUMP JUMPDEST PUSH1 0x40 MLOAD PUSH2 0x1BF SWAP2 SWAP1 PUSH2 0xC29 JUMP JUMPDEST PUSH1 0x40 MLOAD DUP1 SWAP2 SUB SWAP1 RETURN JUMPDEST PUSH1 0x5 PUSH1 0x3C PUSH1 0x1 SLOAD TIMESTAMP PUSH2 0x1DA SWAP2 SWAP1 PUSH2 0xE65 JUMP JUMPDEST PUSH2 0x1E4 SWAP2 SWAP1 PUSH2 0xE34 JUMP JUMPDEST GT PUSH2 0x224 JUMPI PUSH1 0x40 MLOAD PUSH32 0x8C379A000000000000000000000000000000000000000000000000000000000 DUP2 MSTORE PUSH1 0x4 ADD PUSH2 0x21B SWAP1 PUSH2 0xC8D JUMP JUMPDEST PUSH1 0x40 MLOAD DUP1 SWAP2 SUB SWAP1 REVERT JUMPDEST PUSH1 0x0 PUSH1 0x2 PUSH1 0x0 CALLER PUSH20 0xFFFFFFFFFFFFFFFFFFFFFFFFFFFFFFFFFFFFFFFF AND PUSH20 0xFFFFFFFFFFFFFFFFFFFFFFFFFFFFFFFFFFFFFFFF AND DUP2 MSTORE PUSH1 0x20 ADD SWAP1 DUP2 MSTORE PUSH1 0x20 ADD PUSH1 0x0 KECCAK256 SWAP1 POP PUSH1 0x0 DUP2 PUSH1 0x0 ADD SLOAD EQ ISZERO PUSH2 0x2AF JUMPI PUSH1 0x40 MLOAD PUSH32 0x8C379A000000000000000000000000000000000000000000000000000000000 DUP2 MSTORE PUSH1 0x4 ADD PUSH2 0x2A6 SWAP1 PUSH2 0xC6D JUMP JUMPDEST PUSH1 0x40 MLOAD DUP1 SWAP2 SUB SWAP1 REVERT JUMPDEST DUP1 PUSH1 0x1 ADD PUSH1 0x0 SWAP1 SLOAD SWAP1 PUSH2 0x100 EXP SWAP1 DIV PUSH1 0xFF AND ISZERO PUSH2 0x301 JUMPI PUSH1 0x40 MLOAD PUSH32 0x8C379A000000000000000000000000000000000000000000000000000000000 DUP2 MSTORE PUSH1 0x4 ADD PUSH2 0x2F8 SWAP1 PUSH2 0xCAD JUMP JUMPDEST PUSH1 0x40 MLOAD DUP1 SWAP2 SUB SWAP1 REVERT JUMPDEST PUSH1 0x1 DUP2 PUSH1 0x1 ADD PUSH1 0x0 PUSH2 0x100 EXP DUP2 SLOAD DUP2 PUSH1 0xFF MUL NOT AND SWAP1 DUP4 ISZERO ISZERO MUL OR SWAP1 SSTORE POP DUP2 DUP2 PUSH1 0x2 ADD DUP2 SWAP1 SSTORE POP DUP1 PUSH1 0x0 ADD SLOAD PUSH1 0x3 DUP4 DUP2 SLOAD DUP2 LT PUSH2 0x340 JUMPI PUSH2 0x33F PUSH2 0xF92 JUMP JUMPDEST JUMPDEST SWAP1 PUSH1 0x0 MSTORE PUSH1 0x20 PUSH1 0x0 KECCAK256 SWAP1 PUSH1 0x2 MUL ADD PUSH1 0x1 ADD PUSH1 0x0 DUP3 DUP3 SLOAD PUSH2 0x360 SWAP2 SWAP1 PUSH2 0xDDE JUMP JUMPDEST SWAP3 POP POP DUP2 SWAP1 SSTORE POP POP POP JUMP JUMPDEST PUSH1 0x3 DUP2 DUP2 SLOAD DUP2 LT PUSH2 0x37B JUMPI PUSH1 0x0 DUP1 REVERT JUMPDEST SWAP1 PUSH1 0x0 MSTORE PUSH1 0x20 PUSH1 0x0 KECCAK256 SWAP1 PUSH1 0x2 MUL ADD PUSH1 0x0 SWAP2 POP SWAP1 POP DUP1 PUSH1 0x0 ADD SLOAD SWAP1 DUP1 PUSH1 0x1 ADD SLOAD SWAP1 POP DUP3 JUMP JUMPDEST PUSH1 0x0 DUP1 SLOAD SWAP1 PUSH2 0x100 EXP SWAP1 DIV PUSH20 0xFFFFFFFFFFFFFFFFFFFFFFFFFFFFFFFFFFFFFFFF AND DUP2 JUMP JUMPDEST PUSH1 0x0 PUSH1 0x2 PUSH1 0x0 CALLER PUSH20 0xFFFFFFFFFFFFFFFFFFFFFFFFFFFFFFFFFFFFFFFF AND PUSH20 0xFFFFFFFFFFFFFFFFFFFFFFFFFFFFFFFFFFFFFFFF AND DUP2 MSTORE PUSH1 0x20 ADD SWAP1 DUP2 MSTORE PUSH1 0x20 ADD PUSH1 0x0 KECCAK256 SWAP1 POP DUP1 PUSH1 0x1 ADD PUSH1 0x0 SWAP1 SLOAD SWAP1 PUSH2 0x100 EXP SWAP1 DIV PUSH1 0xFF AND ISZERO PUSH2 0x458 JUMPI PUSH1 0x40 MLOAD PUSH32 0x8C379A000000000000000000000000000000000000000000000000000000000 DUP2 MSTORE PUSH1 0x4 ADD PUSH2 0x44F SWAP1 PUSH2 0xCCD JUMP JUMPDEST PUSH1 0x40 MLOAD DUP1 SWAP2 SUB SWAP1 REVERT JUMPDEST CALLER PUSH20 0xFFFFFFFFFFFFFFFFFFFFFFFFFFFFFFFFFFFFFFFF AND DUP3 PUSH20 0xFFFFFFFFFFFFFFFFFFFFFFFFFFFFFFFFFFFFFFFF AND EQ ISZERO PUSH2 0x4C7 JUMPI PUSH1 0x40 MLOAD PUSH32 0x8C379A000000000000000000000000000000000000000000000000000000000 DUP2 MSTORE PUSH1 0x4 ADD PUSH2 0x4BE SWAP1 PUSH2 0xD4D JUMP JUMPDEST PUSH1 0x40 MLOAD DUP1 SWAP2 SUB SWAP1 REVERT JUMPDEST JUMPDEST PUSH1 0x0 PUSH20 0xFFFFFFFFFFFFFFFFFFFFFFFFFFFFFFFFFFFFFFFF AND PUSH1 0x2 PUSH1 0x0 DUP5 PUSH20 0xFFFFFFFFFFFFFFFFFFFFFFFFFFFFFFFFFFFFFFFF AND PUSH20 0xFFFFFFFFFFFFFFFFFFFFFFFFFFFFFFFFFFFFFFFF AND DUP2 MSTORE PUSH1 0x20 ADD SWAP1 DUP2 MSTORE PUSH1 0x20 ADD PUSH1 0x0 KECCAK256 PUSH1 0x1 ADD PUSH1 0x1 SWAP1 SLOAD SWAP1 PUSH2 0x100 EXP SWAP1 DIV PUSH20 0xFFFFFFFFFFFFFFFFFFFFFFFFFFFFFFFFFFFFFFFF AND PUSH20 0xFFFFFFFFFFFFFFFFFFFFFFFFFFFFFFFFFFFFFFFF AND EQ PUSH2 0x637 JUMPI PUSH1 0x2 PUSH1 0x0 DUP4 PUSH20 0xFFFFFFFFFFFFFFFFFFFFFFFFFFFFFFFFFFFFFFFF AND PUSH20 0xFFFFFFFFFFFFFFFFFFFFFFFFFFFFFFFFFFFFFFFF AND DUP2 MSTORE PUSH1 0x20 ADD SWAP1 DUP2 MSTORE PUSH1 0x20 ADD PUSH1 0x0 KECCAK256 PUSH1 0x1 ADD PUSH1 0x1 SWAP1 SLOAD SWAP1 PUSH2 0x100 EXP SWAP1 DIV PUSH20 0xFFFFFFFFFFFFFFFFFFFFFFFFFFFFFFFFFFFFFFFF AND SWAP2 POP CALLER PUSH20 0xFFFFFFFFFFFFFFFFFFFFFFFFFFFFFFFFFFFFFFFF AND DUP3 PUSH20 0xFFFFFFFFFFFFFFFFFFFFFFFFFFFFFFFFFFFFFFFF AND EQ ISZERO PUSH2 0x632 JUMPI PUSH1 0x40 MLOAD PUSH32 0x8C379A000000000000000000000000000000000000000000000000000000000 DUP2 MSTORE PUSH1 0x4 ADD PUSH2 0x629 SWAP1 PUSH2 0xD0D JUMP JUMPDEST PUSH1 0x40 MLOAD DUP1 SWAP2 SUB SWAP1 REVERT JUMPDEST PUSH2 0x4C8 JUMP JUMPDEST PUSH1 0x1 DUP2 PUSH1 0x1 ADD PUSH1 0x0 PUSH2 0x100 EXP DUP2 SLOAD DUP2 PUSH1 0xFF MUL NOT AND SWAP1 DUP4 ISZERO ISZERO MUL OR SWAP1 SSTORE POP DUP2 DUP2 PUSH1 0x1 ADD PUSH1 0x1 PUSH2 0x100 EXP DUP2 SLOAD DUP2 PUSH20 0xFFFFFFFFFFFFFFFFFFFFFFFFFFFFFFFFFFFFFFFF MUL NOT AND SWAP1 DUP4 PUSH20 0xFFFFFFFFFFFFFFFFFFFFFFFFFFFFFFFFFFFFFFFF AND MUL OR SWAP1 SSTORE POP PUSH1 0x0 PUSH1 0x2 PUSH1 0x0 DUP5 PUSH20 0xFFFFFFFFFFFFFFFFFFFFFFFFFFFFFFFFFFFFFFFF AND PUSH20 0xFFFFFFFFFFFFFFFFFFFFFFFFFFFFFFFFFFFFFFFF AND DUP2 MSTORE PUSH1 0x20 ADD SWAP1 DUP2 MSTORE PUSH1 0x20 ADD PUSH1 0x0 KECCAK256 SWAP1 POP DUP1 PUSH1 0x1 ADD PUSH1 0x0 SWAP1 SLOAD SWAP1 PUSH2 0x100 EXP SWAP1 DIV PUSH1 0xFF AND ISZERO PUSH2 0x73A JUMPI DUP2 PUSH1 0x0 ADD SLOAD PUSH1 0x3 DUP3 PUSH1 0x2 ADD SLOAD DUP2 SLOAD DUP2 LT PUSH2 0x70E JUMPI PUSH2 0x70D PUSH2 0xF92 JUMP JUMPDEST JUMPDEST SWAP1 PUSH1 0x0 MSTORE PUSH1 0x20 PUSH1 0x0 KECCAK256 SWAP1 PUSH1 0x2 MUL ADD PUSH1 0x1 ADD PUSH1 0x0 DUP3 DUP3 SLOAD PUSH2 0x72E SWAP2 SWAP1 PUSH2 0xDDE JUMP JUMPDEST SWAP3 POP POP DUP2 SWAP1 SSTORE POP PUSH2 0x75A JUMP JUMPDEST DUP2 PUSH1 0x0 ADD SLOAD DUP2 PUSH1 0x0 ADD PUSH1 0x0 DUP3 DUP3 SLOAD PUSH2 0x752 SWAP2 SWAP1 PUSH2 0xDDE JUMP JUMPDEST SWAP3 POP POP DUP2 SWAP1 SSTORE POP JUMPDEST POP POP POP JUMP JUMPDEST PUSH1 0x0 DUP1 PUSH1 0x0 SWAP1 POP PUSH1 0x0 JUMPDEST PUSH1 0x3 DUP1 SLOAD SWAP1 POP DUP2 LT ISZERO PUSH2 0x7E2 JUMPI DUP2 PUSH1 0x3 DUP3 DUP2 SLOAD DUP2 LT PUSH2 0x78B JUMPI PUSH2 0x78A PUSH2 0xF92 JUMP JUMPDEST JUMPDEST SWAP1 PUSH1 0x0 MSTORE PUSH1 0x20 PUSH1 0x0 KECCAK256 SWAP1 PUSH1 0x2 MUL ADD PUSH1 0x1 ADD SLOAD GT ISZERO PUSH2 0x7CF JUMPI PUSH1 0x3 DUP2 DUP2 SLOAD DUP2 LT PUSH2 0x7B7 JUMPI PUSH2 0x7B6 PUSH2 0xF92 JUMP JUMPDEST JUMPDEST SWAP1 PUSH1 0x0 MSTORE PUSH1 0x20 PUSH1 0x0 KECCAK256 SWAP1 PUSH1 0x2 MUL ADD PUSH1 0x1 ADD SLOAD SWAP2 POP DUP1 SWAP3 POP JUMPDEST DUP1 DUP1 PUSH2 0x7DA SWAP1 PUSH2 0xEEB JUMP JUMPDEST SWAP2 POP POP PUSH2 0x769 JUMP JUMPDEST POP POP SWAP1 JUMP JUMPDEST PUSH1 0x1 SLOAD DUP2 JUMP JUMPDEST PUSH1 0x0 DUP1 SLOAD SWAP1 PUSH2 0x100 EXP SWAP1 DIV PUSH20 0xFFFFFFFFFFFFFFFFFFFFFFFFFFFFFFFFFFFFFFFF AND PUSH20 0xFFFFFFFFFFFFFFFFFFFFFFFFFFFFFFFFFFFFFFFF AND CALLER PUSH20 0xFFFFFFFFFFFFFFFFFFFFFFFFFFFFFFFFFFFFFFFF AND EQ PUSH2 0x87B JUMPI PUSH1 0x40 MLOAD PUSH32 0x8C379A000000000000000000000000000000000000000000000000000000000 DUP2 MSTORE PUSH1 0x4 ADD PUSH2 0x872 SWAP1 PUSH2 0xCED JUMP JUMPDEST PUSH1 0x40 MLOAD DUP1 SWAP2 SUB SWAP1 REVERT JUMPDEST PUSH1 0x2 PUSH1 0x0 DUP3 PUSH20 0xFFFFFFFFFFFFFFFFFFFFFFFFFFFFFFFFFFFFFFFF AND PUSH20 0xFFFFFFFFFFFFFFFFFFFFFFFFFFFFFFFFFFFFFFFF AND DUP2 MSTORE PUSH1 0x20 ADD SWAP1 DUP2 MSTORE PUSH1 0x20 ADD PUSH1 0x0 KECCAK256 PUSH1 0x1 ADD PUSH1 0x0 SWAP1 SLOAD SWAP1 PUSH2 0x100 EXP SWAP1 DIV PUSH1 0xFF AND ISZERO PUSH2 0x90B JUMPI PUSH1 0x40 MLOAD PUSH32 0x8C379A000000000000000000000000000000000000000000000000000000000 DUP2 MSTORE PUSH1 0x4 ADD PUSH2 0x902 SWAP1 PUSH2 0xD2D JUMP JUMPDEST PUSH1 0x40 MLOAD DUP1 SWAP2 SUB SWAP1 REVERT JUMPDEST PUSH1 0x0 PUSH1 0x2 PUSH1 0x0 DUP4 PUSH20 0xFFFFFFFFFFFFFFFFFFFFFFFFFFFFFFFFFFFFFFFF AND PUSH20 0xFFFFFFFFFFFFFFFFFFFFFFFFFFFFFFFFFFFFFFFF AND DUP2 MSTORE PUSH1 0x20 ADD SWAP1 DUP2 MSTORE PUSH1 0x20 ADD PUSH1 0x0 KECCAK256 PUSH1 0x0 ADD SLOAD EQ PUSH2 0x95A JUMPI PUSH1 0x0 DUP1 REVERT JUMPDEST PUSH1 0x1 PUSH1 0x2 PUSH1 0x0 DUP4 PUSH20 0xFFFFFFFFFFFFFFFFFFFFFFFFFFFFFFFFFFFFFFFF AND PUSH20 0xFFFFFFFFFFFFFFFFFFFFFFFFFFFFFFFFFFFFFFFF AND DUP2 MSTORE PUSH1 0x20 ADD SWAP1 DUP2 MSTORE PUSH1 0x20 ADD PUSH1 0x0 KECCAK256 PUSH1 0x0 ADD DUP2 SWAP1 SSTORE POP POP JUMP JUMPDEST PUSH1 0x2 PUSH1 0x20 MSTORE DUP1 PUSH1 0x0 MSTORE PUSH1 0x40 PUSH1 0x0 KECCAK256 PUSH1 0x0 SWAP2 POP SWAP1 POP DUP1 PUSH1 0x0 ADD SLOAD SWAP1 DUP1 PUSH1 0x1 ADD PUSH1 0x0 SWAP1 SLOAD SWAP1 PUSH2 0x100 EXP SWAP1 DIV PUSH1 0xFF AND SWAP1 DUP1 PUSH1 0x1 ADD PUSH1 0x1 SWAP1 SLOAD SWAP1 PUSH2 0x100 EXP SWAP1 DIV PUSH20 0xFFFFFFFFFFFFFFFFFFFFFFFFFFFFFFFFFFFFFFFF AND SWAP1 DUP1 PUSH1 0x2 ADD SLOAD SWAP1 POP DUP5 JUMP JUMPDEST PUSH1 0x0 PUSH1 0x3 PUSH2 0xA0E PUSH2 0x75F JUMP JUMPDEST DUP2 SLOAD DUP2 LT PUSH2 0xA1F JUMPI PUSH2 0xA1E PUSH2 0xF92 JUMP JUMPDEST JUMPDEST SWAP1 PUSH1 0x0 MSTORE PUSH1 0x20 PUSH1 0x0 KECCAK256 SWAP1 PUSH1 0x2 MUL ADD PUSH1 0x0 ADD SLOAD SWAP1 POP SWAP1 JUMP JUMPDEST PUSH1 0x0 DUP2 CALLDATALOAD SWAP1 POP PUSH2 0xA45 DUP2 PUSH2 0x1134 JUMP JUMPDEST SWAP3 SWAP2 POP POP JUMP JUMPDEST PUSH1 0x0 DUP2 CALLDATALOAD SWAP1 POP PUSH2 0xA5A DUP2 PUSH2 0x114B JUMP JUMPDEST SWAP3 SWAP2 POP POP JUMP JUMPDEST PUSH1 0x0 PUSH1 0x20 DUP3 DUP5 SUB SLT ISZERO PUSH2 0xA76 JUMPI PUSH2 0xA75 PUSH2 0xFC1 JUMP JUMPDEST JUMPDEST PUSH1 0x0 PUSH2 0xA84 DUP5 DUP3 DUP6 ADD PUSH2 0xA36 JUMP JUMPDEST SWAP2 POP POP SWAP3 SWAP2 POP POP JUMP JUMPDEST PUSH1 0x0 PUSH1 0x20 DUP3 DUP5 SUB SLT ISZERO PUSH2 0xAA3 JUMPI PUSH2 0xAA2 PUSH2 0xFC1 JUMP JUMPDEST JUMPDEST PUSH1 0x0 PUSH2 0xAB1 DUP5 DUP3 DUP6 ADD PUSH2 0xA4B JUMP JUMPDEST SWAP2 POP POP SWAP3 SWAP2 POP POP JUMP JUMPDEST PUSH2 0xAC3 DUP2 PUSH2 0xE99 JUMP JUMPDEST DUP3 MSTORE POP POP JUMP JUMPDEST PUSH2 0xAD2 DUP2 PUSH2 0xEAB JUMP JUMPDEST DUP3 MSTORE POP POP JUMP JUMPDEST PUSH2 0xAE1 DUP2 PUSH2 0xEB7 JUMP JUMPDEST DUP3 MSTORE POP POP JUMP JUMPDEST PUSH1 0x0 PUSH2 0xAF4 PUSH1 0x14 DUP4 PUSH2 0xDCD JUMP JUMPDEST SWAP2 POP PUSH2 0xAFF DUP3 PUSH2 0xFC6 JUMP JUMPDEST PUSH1 0x20 DUP3 ADD SWAP1 POP SWAP2 SWAP1 POP JUMP JUMPDEST PUSH1 0x0 PUSH2 0xB17 PUSH1 0x10 DUP4 PUSH2 0xDCD JUMP JUMPDEST SWAP2 POP PUSH2 0xB22 DUP3 PUSH2 0xFEF JUMP JUMPDEST PUSH1 0x20 DUP3 ADD SWAP1 POP SWAP2 SWAP1 POP JUMP JUMPDEST PUSH1 0x0 PUSH2 0xB3A PUSH1 0xE DUP4 PUSH2 0xDCD JUMP JUMPDEST SWAP2 POP PUSH2 0xB45 DUP3 PUSH2 0x1018 JUMP JUMPDEST PUSH1 0x20 DUP3 ADD SWAP1 POP SWAP2 SWAP1 POP JUMP JUMPDEST PUSH1 0x0 PUSH2 0xB5D PUSH1 0x12 DUP4 PUSH2 0xDCD JUMP JUMPDEST SWAP2 POP PUSH2 0xB68 DUP3 PUSH2 0x1041 JUMP JUMPDEST PUSH1 0x20 DUP3 ADD SWAP1 POP SWAP2 SWAP1 POP JUMP JUMPDEST PUSH1 0x0 PUSH2 0xB80 PUSH1 0x28 DUP4 PUSH2 0xDCD JUMP JUMPDEST SWAP2 POP PUSH2 0xB8B DUP3 PUSH2 0x106A JUMP JUMPDEST PUSH1 0x40 DUP3 ADD SWAP1 POP SWAP2 SWAP1 POP JUMP JUMPDEST PUSH1 0x0 PUSH2 0xBA3 PUSH1 0x19 DUP4 PUSH2 0xDCD JUMP JUMPDEST SWAP2 POP PUSH2 0xBAE DUP3 PUSH2 0x10B9 JUMP JUMPDEST PUSH1 0x20 DUP3 ADD SWAP1 POP SWAP2 SWAP1 POP JUMP JUMPDEST PUSH1 0x0 PUSH2 0xBC6 PUSH1 0x18 DUP4 PUSH2 0xDCD JUMP JUMPDEST SWAP2 POP PUSH2 0xBD1 DUP3 PUSH2 0x10E2 JUMP JUMPDEST PUSH1 0x20 DUP3 ADD SWAP1 POP SWAP2 SWAP1 POP JUMP JUMPDEST PUSH1 0x0 PUSH2 0xBE9 PUSH1 0x1E DUP4 PUSH2 0xDCD JUMP JUMPDEST SWAP2 POP PUSH2 0xBF4 DUP3 PUSH2 0x110B JUMP JUMPDEST PUSH1 0x20 DUP3 ADD SWAP1 POP SWAP2 SWAP1 POP JUMP JUMPDEST PUSH2 0xC08 DUP2 PUSH2 0xEE1 JUMP JUMPDEST DUP3 MSTORE POP POP JUMP JUMPDEST PUSH1 0x0 PUSH1 0x20 DUP3 ADD SWAP1 POP PUSH2 0xC23 PUSH1 0x0 DUP4 ADD DUP5 PUSH2 0xABA JUMP JUMPDEST SWAP3 SWAP2 POP POP JUMP JUMPDEST PUSH1 0x0 PUSH1 0x20 DUP3 ADD SWAP1 POP PUSH2 0xC3E PUSH1 0x0 DUP4 ADD DUP5 PUSH2 0xAD8 JUMP JUMPDEST SWAP3 SWAP2 POP POP JUMP JUMPDEST PUSH1 0x0 PUSH1 0x40 DUP3 ADD SWAP1 POP PUSH2 0xC59 PUSH1 0x0 DUP4 ADD DUP6 PUSH2 0xAD8 JUMP JUMPDEST PUSH2 0xC66 PUSH1 0x20 DUP4 ADD DUP5 PUSH2 0xBFF JUMP JUMPDEST SWAP4 SWAP3 POP POP POP JUMP JUMPDEST PUSH1 0x0 PUSH1 0x20 DUP3 ADD SWAP1 POP DUP2 DUP2 SUB PUSH1 0x0 DUP4 ADD MSTORE PUSH2 0xC86 DUP2 PUSH2 0xAE7 JUMP JUMPDEST SWAP1 POP SWAP2 SWAP1 POP JUMP JUMPDEST PUSH1 0x0 PUSH1 0x20 DUP3 ADD SWAP1 POP DUP2 DUP2 SUB PUSH1 0x0 DUP4 ADD MSTORE PUSH2 0xCA6 DUP2 PUSH2 0xB0A JUMP JUMPDEST SWAP1 POP SWAP2 SWAP1 POP JUMP JUMPDEST PUSH1 0x0 PUSH1 0x20 DUP3 ADD SWAP1 POP DUP2 DUP2 SUB PUSH1 0x0 DUP4 ADD MSTORE PUSH2 0xCC6 DUP2 PUSH2 0xB2D JUMP JUMPDEST SWAP1 POP SWAP2 SWAP1 POP JUMP JUMPDEST PUSH1 0x0 PUSH1 0x20 DUP3 ADD SWAP1 POP DUP2 DUP2 SUB PUSH1 0x0 DUP4 ADD MSTORE PUSH2 0xCE6 DUP2 PUSH2 0xB50 JUMP JUMPDEST SWAP1 POP SWAP2 SWAP1 POP JUMP JUMPDEST PUSH1 0x0 PUSH1 0x20 DUP3 ADD SWAP1 POP DUP2 DUP2 SUB PUSH1 0x0 DUP4 ADD MSTORE PUSH2 0xD06 DUP2 PUSH2 0xB73 JUMP JUMPDEST SWAP1 POP SWAP2 SWAP1 POP JUMP JUMPDEST PUSH1 0x0 PUSH1 0x20 DUP3 ADD SWAP1 POP DUP2 DUP2 SUB PUSH1 0x0 DUP4 ADD MSTORE PUSH2 0xD26 DUP2 PUSH2 0xB96 JUMP JUMPDEST SWAP1 POP SWAP2 SWAP1 POP JUMP JUMPDEST PUSH1 0x0 PUSH1 0x20 DUP3 ADD SWAP1 POP DUP2 DUP2 SUB PUSH1 0x0 DUP4 ADD MSTORE PUSH2 0xD46 DUP2 PUSH2 0xBB9 JUMP JUMPDEST SWAP1 POP SWAP2 SWAP1 POP JUMP JUMPDEST PUSH1 0x0 PUSH1 0x20 DUP3 ADD SWAP1 POP DUP2 DUP2 SUB PUSH1 0x0 DUP4 ADD MSTORE PUSH2 0xD66 DUP2 PUSH2 0xBDC JUMP JUMPDEST SWAP1 POP SWAP2 SWAP1 POP JUMP JUMPDEST PUSH1 0x0 PUSH1 0x20 DUP3 ADD SWAP1 POP PUSH2 0xD82 PUSH1 0x0 DUP4 ADD DUP5 PUSH2 0xBFF JUMP JUMPDEST SWAP3 SWAP2 POP POP JUMP JUMPDEST PUSH1 0x0 PUSH1 0x80 DUP3 ADD SWAP1 POP PUSH2 0xD9D PUSH1 0x0 DUP4 ADD DUP8 PUSH2 0xBFF JUMP JUMPDEST PUSH2 0xDAA PUSH1 0x20 DUP4 ADD DUP7 PUSH2 0xAC9 JUMP JUMPDEST PUSH2 0xDB7 PUSH1 0x40 DUP4 ADD DUP6 PUSH2 0xABA JUMP JUMPDEST PUSH2 0xDC4 PUSH1 0x60 DUP4 ADD DUP5 PUSH2 0xBFF JUMP JUMPDEST SWAP6 SWAP5 POP POP POP POP POP JUMP JUMPDEST PUSH1 0x0 DUP3 DUP3 MSTORE PUSH1 0x20 DUP3 ADD SWAP1 POP SWAP3 SWAP2 POP POP JUMP JUMPDEST PUSH1 0x0 PUSH2 0xDE9 DUP3 PUSH2 0xEE1 JUMP JUMPDEST SWAP2 POP PUSH2 0xDF4 DUP4 PUSH2 0xEE1 JUMP JUMPDEST SWAP3 POP DUP3 PUSH32 0xFFFFFFFFFFFFFFFFFFFFFFFFFFFFFFFFFFFFFFFFFFFFFFFFFFFFFFFFFFFFFFFF SUB DUP3 GT ISZERO PUSH2 0xE29 JUMPI PUSH2 0xE28 PUSH2 0xF34 JUMP JUMPDEST JUMPDEST DUP3 DUP3 ADD SWAP1 POP SWAP3 SWAP2 POP POP JUMP JUMPDEST PUSH1 0x0 PUSH2 0xE3F DUP3 PUSH2 0xEE1 JUMP JUMPDEST SWAP2 POP PUSH2 0xE4A DUP4 PUSH2 0xEE1 JUMP JUMPDEST SWAP3 POP DUP3 PUSH2 0xE5A JUMPI PUSH2 0xE59 PUSH2 0xF63 JUMP JUMPDEST JUMPDEST DUP3 DUP3 DIV SWAP1 POP SWAP3 SWAP2 POP POP JUMP JUMPDEST PUSH1 0x0 PUSH2 0xE70 DUP3 PUSH2 0xEE1 JUMP JUMPDEST SWAP2 POP PUSH2 0xE7B DUP4 PUSH2 0xEE1 JUMP JUMPDEST SWAP3 POP DUP3 DUP3 LT ISZERO PUSH2 0xE8E JUMPI PUSH2 0xE8D PUSH2 0xF34 JUMP JUMPDEST JUMPDEST DUP3 DUP3 SUB SWAP1 POP SWAP3 SWAP2 POP POP JUMP JUMPDEST PUSH1 0x0 PUSH2 0xEA4 DUP3 PUSH2 0xEC1 JUMP JUMPDEST SWAP1 POP SWAP2 SWAP1 POP JUMP JUMPDEST PUSH1 0x0 DUP2 ISZERO ISZERO SWAP1 POP SWAP2 SWAP1 POP JUMP JUMPDEST PUSH1 0x0 DUP2 SWAP1 POP SWAP2 SWAP1 POP JUMP JUMPDEST PUSH1 0x0 PUSH20 0xFFFFFFFFFFFFFFFFFFFFFFFFFFFFFFFFFFFFFFFF DUP3 AND SWAP1 POP SWAP2 SWAP1 POP JUMP JUMPDEST PUSH1 0x0 DUP2 SWAP1 POP SWAP2 SWAP1 POP JUMP JUMPDEST PUSH1 0x0 PUSH2 0xEF6 DUP3 PUSH2 0xEE1 JUMP JUMPDEST SWAP2 POP PUSH32 0xFFFFFFFFFFFFFFFFFFFFFFFFFFFFFFFFFFFFFFFFFFFFFFFFFFFFFFFFFFFFFFFF DUP3 EQ ISZERO PUSH2 0xF29 JUMPI PUSH2 0xF28 PUSH2 0xF34 JUMP JUMPDEST JUMPDEST PUSH1 0x1 DUP3 ADD SWAP1 POP SWAP2 SWAP1 POP JUMP JUMPDEST PUSH32 0x4E487B7100000000000000000000000000000000000000000000000000000000 PUSH1 0x0 MSTORE PUSH1 0x11 PUSH1 0x4 MSTORE PUSH1 0x24 PUSH1 0x0 REVERT JUMPDEST PUSH32 0x4E487B7100000000000000000000000000000000000000000000000000000000 PUSH1 0x0 MSTORE PUSH1 0x12 PUSH1 0x4 MSTORE PUSH1 0x24 PUSH1 0x0 REVERT JUMPDEST PUSH32 0x4E487B7100000000000000000000000000000000000000000000000000000000 PUSH1 0x0 MSTORE PUSH1 0x32 PUSH1 0x4 MSTORE PUSH1 0x24 PUSH1 0x0 REVERT JUMPDEST PUSH1 0x0 DUP1 REVERT JUMPDEST PUSH32 0x486173206E6F20726967687420746F20766F7465000000000000000000000000 PUSH1 0x0 DUP3 ADD MSTORE POP JUMP JUMPDEST PUSH32 0x566F74696E6720697320656E6465642100000000000000000000000000000000 PUSH1 0x0 DUP3 ADD MSTORE POP JUMP JUMPDEST PUSH32 0x416C726561647920766F7465642E000000000000000000000000000000000000 PUSH1 0x0 DUP3 ADD MSTORE POP JUMP JUMPDEST PUSH32 0x596F7520616C726561647920766F7465642E0000000000000000000000000000 PUSH1 0x0 DUP3 ADD MSTORE POP JUMP JUMPDEST PUSH32 0x4F6E6C79206368616972706572736F6E2063616E206769766520726967687420 PUSH1 0x0 DUP3 ADD MSTORE PUSH32 0x746F20766F74652E000000000000000000000000000000000000000000000000 PUSH1 0x20 DUP3 ADD MSTORE POP JUMP JUMPDEST PUSH32 0x466F756E64206C6F6F7020696E2064656C65676174696F6E2E00000000000000 PUSH1 0x0 DUP3 ADD MSTORE POP JUMP JUMPDEST PUSH32 0x54686520766F74657220616C726561647920766F7465642E0000000000000000 PUSH1 0x0 DUP3 ADD MSTORE POP JUMP JUMPDEST PUSH32 0x53656C662D64656C65676174696F6E20697320646973616C6C6F7765642E0000 PUSH1 0x0 DUP3 ADD MSTORE POP JUMP JUMPDEST PUSH2 0x113D DUP2 PUSH2 0xE99 JUMP JUMPDEST DUP2 EQ PUSH2 0x1148 JUMPI PUSH1 0x0 DUP1 REVERT JUMPDEST POP JUMP JUMPDEST PUSH2 0x1154 DUP2 PUSH2 0xEE1 JUMP JUMPDEST DUP2 EQ PUSH2 0x115F JUMPI PUSH1 0x0 DUP1 REVERT JUMPDEST POP JUMP INVALID LOG2 PUSH5 0x6970667358 0x22 SLT KECCAK256 0xCD 0xBC 0xBB EXP 0x4B 0xDF 0xEB PUSH12 0xD43089760412D850E97503BE 0x26 DUP1 DUP13 DUP8 0x2D 0xD3 PUSH2 0x54FE 0xA5 0xC8 PUSH15 0x64736F6C6343000807003300000000 "
				},
				"gasEstimates": {
					"creation": {
						"codeDepositCost": "900800",
						"executionCost": "infinite",
						"totalCost": "infinite"
					},
					"external": {
						"chairperson()": "2556",
						"delegate(address)": "infinite",
						"giveRightToVote(address)": "29347",
						"proposals(uint256)": "infinite",
						"startTime()": "2451",
						"vote(uint256)": "infinite",
						"voters(address)": "infinite",
						"winnerName()": "infinite",
						"winningProposal()": "infinite"
					}
				},
				"methodIdentifiers": {
					"chairperson()": "2e4176cf",
					"delegate(address)": "5c19a95c",
					"giveRightToVote(address)": "9e7b8d61",
					"proposals(uint256)": "013cf08b",
					"startTime()": "78e97925",
					"vote(uint256)": "0121b93f",
					"voters(address)": "a3ec138d",
					"winnerName()": "e2ba53f0",
					"winningProposal()": "609ff1bd"
				}
			},
			"storageLayout": {
				"storage": [
					{
						"astId": 18,
						"contract": "contracts/3_Ballot.sol:Ballot",
						"label": "chairperson",
						"offset": 0,
						"slot": "0",
						"type": "t_address"
					},
					{
						"astId": 20,
						"contract": "contracts/3_Ballot.sol:Ballot",
						"label": "startTime",
						"offset": 0,
						"slot": "1",
						"type": "t_uint256"
					},
					{
						"astId": 25,
						"contract": "contracts/3_Ballot.sol:Ballot",
						"label": "voters",
						"offset": 0,
						"slot": "2",
						"type": "t_mapping(t_address,t_struct(Voter)11_storage)"
					},
					{
						"astId": 29,
						"contract": "contracts/3_Ballot.sol:Ballot",
						"label": "proposals",
						"offset": 0,
						"slot": "3",
						"type": "t_array(t_struct(Proposal)16_storage)dyn_storage"
					}
				],
				"types": {
					"t_address": {
						"encoding": "inplace",
						"label": "address",
						"numberOfBytes": "20"
					},
					"t_array(t_struct(Proposal)16_storage)dyn_storage": {
						"base": "t_struct(Proposal)16_storage",
						"encoding": "dynamic_array",
						"label": "struct Ballot.Proposal[]",
						"numberOfBytes": "32"
					},
					"t_bool": {
						"encoding": "inplace",
						"label": "bool",
						"numberOfBytes": "1"
					},
					"t_bytes32": {
						"encoding": "inplace",
						"label": "bytes32",
						"numberOfBytes": "32"
					},
					"t_mapping(t_address,t_struct(Voter)11_storage)": {
						"encoding": "mapping",
						"key": "t_address",
						"label": "mapping(address => struct Ballot.Voter)",
						"numberOfBytes": "32",
						"value": "t_struct(Voter)11_storage"
					},
					"t_struct(Proposal)16_storage": {
						"encoding": "inplace",
						"label": "struct Ballot.Proposal",
						"members": [
							{
								"astId": 13,
								"contract": "contracts/3_Ballot.sol:Ballot",
								"label": "name",
								"offset": 0,
								"slot": "0",
								"type": "t_bytes32"
							},
							{
								"astId": 15,
								"contract": "contracts/3_Ballot.sol:Ballot",
								"label": "voteCount",
								"offset": 0,
								"slot": "1",
								"type": "t_uint256"
							}
						],
						"numberOfBytes": "64"
					},
					"t_struct(Voter)11_storage": {
						"encoding": "inplace",
						"label": "struct Ballot.Voter",
						"members": [
							{
								"astId": 4,
								"contract": "contracts/3_Ballot.sol:Ballot",
								"label": "weight",
								"offset": 0,
								"slot": "0",
								"type": "t_uint256"
							},
							{
								"astId": 6,
								"contract": "contracts/3_Ballot.sol:Ballot",
								"label": "voted",
								"offset": 0,
								"slot": "1",
								"type": "t_bool"
							},
							{
								"astId": 8,
								"contract": "contracts/3_Ballot.sol:Ballot",
								"label": "delegate",
								"offset": 1,
								"slot": "1",
								"type": "t_address"
							},
							{
								"astId": 10,
								"contract": "contracts/3_Ballot.sol:Ballot",
								"label": "vote",
								"offset": 0,
								"slot": "2",
								"type": "t_uint256"
							}
						],
						"numberOfBytes": "96"
					},
					"t_uint256": {
						"encoding": "inplace",
						"label": "uint256",
						"numberOfBytes": "32"
					}
				}
			},
			"userdoc": {
				"kind": "user",
				"methods": {},
				"version": 1
			}
		}
	}
}